:020000040800F2
:1000000000280020A50C0008F10B0008F70B0008E1
:10001000FD0B0008030C0008090C0008000000009C
:1000200000000000000000000000000091550008E2
:100030000F0C00080000000071570008B9570008B5
:10004000ED0C0008ED0C0008ED0C0008ED0C0008AC
:10005000ED0C0008ED0C00081B0C0008290C000832
:10006000370C0008450C0008530C0008ED0C000884
:10007000ED0C0008ED0C0008ED0C0008ED0C00087C
:10008000ED0C0008ED0C0008ED0C0008ED0C00086C
:10009000ED0C0008ED0C0008ED0C0008610C0008E8
:1000A000ED0C0008750C0008ED0C0008ED0C0008C4
:1000B000ED0C0008ED0C000800000000ED0C00083D
:1000C000ED0C00080000000000000000ED0C00082E
:1000D00000000000ED0C0008ED0C0008000000001E
:1000E000890C0008ED0C0008ED0C00080000000071
:1000F0000000000000000000000000000000000000
:0C01000000000000000000005FF808F1A3
:1001100010B5054C237833B9044B13B10448AFF341
:1001200000800123237010BD10000020000000009B
:10013000E05C000808B5034B1BB103490348AFF36B
:10014000008008BD0000000014000020E05C0008F2
:1001500080B485B000AF78600023FB600023BB60F3
:100160000DE0BB687A6813441B781A46BB6802FA34
:1001700003F3FA681344FB60BB680133BB60BB68E0
:10018000072BEEDDFB6818461437BD4680BC704770
:1001900080B586B000AF03463A60FB710B46BB7179
:1001A00000237B61164B174A1749184801F055FC8C
:1001B00007F10C03164A0021144801F028FD3B7B8F
:1001C000BA799A420AD1FA79114B1B689A4202D045
:1001D000FB79002B02D101233B610BE07B690133EA
:1001E0007B61012000F0B6FD7A693B689A42D9D163
:1001F00000233B613B6918461837BD4680BD00BFF0
:10020000EC000020F8000020900000205C0000209E
:10021000A800002080B485B000AFF860B9607A60B3
:100220003B60FA68BB68D31AB9693A688A1A03FB5B
:1002300002F27968BB68CB1AB2FBF3F23B68134455
:1002400018461437BD4680BC7047000080B500AF2B
:1002500000F04EFD00F06AF800F038F900F000F907
:1002600000F0C0F8254801F0B4FB254B01221A61CB
:10027000234B00229A60224B0022DA60204B12228C
:100280001A60204B01221A621E4B00225A611D4B3C
:1002900000221A611B4B00221A601A4B00225A607E
:1002A000184B00229A60174B0022DA60154B00228F
:1002B0009A61144B0122DA611249104801F0C0FA28
:1002C00003F062F8104A0021104803F0C3F8034617
:1002D0000F4A13600F4A00210F4803F0BBF8034692
:1002E0000E4A13600E4A00210E4803F0B3F803468D
:1002F0000D4A136003F07AF8FEE700BF5C000020AF
:1003000090000020C4000020585D00085506000839
:10031000840000207C5D0008B907000888000020E8
:10032000A05D0008F90700088C00002080B594B09B
:1003300000AF07F1280328220021184605F0C8FC69
:1003400007F1140300221A605A609A60DA601A6199
:100350003B1D00221A605A609A60DA600123BB627A
:100360004FF48033FB6200233B630123BB63022312
:100370007B644FF48033BB644FF4E013FB6407F1FC
:100380002803184602F01AF80346002B01D000F0AB
:10039000F7FA0F237B610223BB610023FB614FF45B
:1003A00080633B6200237B6207F11403022118463D
:1003B00002F086FA0346002B01D000F0E1FA022396
:1003C0007B604FF40043FB603B1D184602F02CFCA1
:1003D0000346002B01D000F0D3FA00BF5037BD46D2
:1003E00080BD000080B584B000AF3B1D00221A60C4
:1003F0005A609A60184B194A1A60174B00229A608B
:10040000154B00221A73144B00221A75124B4FF42D
:100410006022DA61104B00225A600F4B01221A61F0
:100420000D4800F0BBFC0346002B01D000F0A8FAF9
:1004300008237B600123BB600023FB603B1D194642
:10044000054800F06FFF0346002B01D000F098FA3A
:1004500000BF1037BD4680BD2C00002000240140A5
:1004600080B500AF174B184A1A60164B04225A6029
:10047000144B00229A60134B0022DA60114B4FF4A8
:1004800060221A610F4B4FF480125A610D4B00220B
:100490001A760C4B00225A760A4B00229A76094BA8
:1004A0000022DA76074B00221A77064B00225A7791
:1004B000044801F0CAF80346002B01D000F060FAAE
:1004C00000BF80BD5C0000200064004080B588B0A3
:1004D00000AF07F1100300221A605A609A60DA60D8
:1004E000574B9B69564A43F010039361544B9B69E9
:1004F00003F01003FB60FB68514B9B69504A43F0CB
:10050000200393614E4B9B6903F02003BB60BB68E3
:100510004B4B9B694A4A43F004039361484B9B69E8
:1005200003F004037B607B68454B9B69444A43F0BE
:1005300008039361424B9B6903F008033B603B68EF
:1005400000224FF400413F4801F0E5FE00224FF445
:100550007E713D4801F0DFFE4FF400433B613B4BB1
:100560007B610123BB6107F110031946384801F094
:100570003FFD7F233B61354B7B610123BB6107F16D
:10058000100319462F4801F033FD4FF400433B613F
:1005900001237B610023BB610223FB6107F1100390
:1005A0001946284801F024FD4FF47E733B61012376
:1005B0007B610023BB610223FB6107F11003194635
:1005C000214801F015FD00220521062001F0E5FC7F
:1005D000062001F0FEFC00220521072001F0DDFCD1
:1005E000072001F0F6FC00220521082001F0D5FCCF
:1005F000082001F0EEFC00220521092001F0CDFCCD
:10060000092001F0E6FC002205210A2001F0C5FCCA
:100610000A2001F0DEFC00220521172001F0BDFCBC
:10062000172001F0D6FC00220521282001F0B5FC9E
:10063000282001F0CEFC00BF2037BD4680BD00BFA2
:100640000010024000080140000C014000001110A1
:100650000010014080B586B002AF7860504800F0CD
:1006600075FC0A214E4800F04BFD4D4800F04EFE4F
:100670000346FB814A4800F017FD4FF4004149480A
:1006800001F032FE0346002B09D100224FF4007125
:10069000454801F040FE454B00221A7008E0012257
:1006A0004FF40071404801F036FE404B01221A70B1
:1006B00001213F4801F018FE0346002B03D13B4BBC
:1006C00001225A7002E0394B00225A700221384848
:1006D00001F00AFE0346002B03D1344B01229A702D
:1006E00002E0324B00229A700421314801F0FCFDF7
:1006F0000346002B03D12D4B0122DA7002E02B4B75
:100700000022DA7008212A4801F0EEFD0346002B92
:1007100003D1264B01221A7102E0244B00221A71E8
:100720001021234801F0E0FD0346002B03D11F4BAD
:1007300001225A7102E01D4B00225A7120211C48EF
:1007400001F0D2FD0346002B03D1184B01229A7110
:1007500002E0164B00229A714021154801F0C4FDB9
:100760000346002B03D1114B0122DA7102E00F4B3B
:100770000022DA710D48FFF7EBFC0346DAB20D4BAD
:100780001A70F889FF230093002340F6FF720021BE
:10079000FFF740FD0346DAB2064B5A705EE700BF32
:1007A0002C00002000100140000C0140F00000204F
:1007B00000080140F800002080B584B000AF7860E8
:1007C0000B4B12221A600A4B1B68FB73084B022268
:1007D0001A61FB7B642219460020FFF7D9FC4FF415
:1007E0000051044801F0AFFD322000F0B3FAF0E709
:1007F000900000200010014080B584B000AF786008
:100800000023FB8100237B7300233B730023FB72D7
:100810004F4B1B78012B06D101224FF400714D483C
:1008200001F079FD05E000224FF40071494801F024
:1008300072FD474B5B78012B02D10123FB7201E073
:100840000023FB72424B9B78012B02D0FB7A002BDA
:1008500012D001237B73FB89642B06D801224FF44D
:1008600080713C4801F057FD0EE000224FF480718A
:10087000384801F050FD07E000237B7300224FF45D
:100880000071344801F047FD314BDB78012B02D079
:10089000FB7A002B12D001233B73FB89642B06D813
:1008A00001224FF400412C4801F035FD0EE00022FA
:1008B0004FF40041284801F02EFD07E000233B7370
:1008C00000224FF40041244801F025FD204B1B7904
:1008D000012B05D1012240211E4801F01CFD04E03E
:1008E000002240211B4801F016FD194B5B79012BBA
:1008F00005D101222021174801F00DFD04E000225E
:100900002021144801F007FD114B9B79012B05D1E3
:10091000012210210F4801F0FEFC04E0002210210A
:100920000C4801F0F8FC3B7B002B02D17B7B002BB9
:1009300008D0FB890133FB81FB89C82B04D9002334
:10094000FB8101E00023FB81012000F003FA5FE757
:10095000F0000020000C01400008014080B582B08A
:1009600000AF78607B681B68044A934201D100F0B5
:10097000D5F900BF0837BD4680BD00BF002C01403F
:1009800080B400AF72B600BFFEE7000080B584B04F
:1009900000AF184B9B69174A43F001039361154B55
:1009A0009B6903F00103BB60BB68124BDB69114A12
:1009B00043F08053D3610F4BDB6903F080537B60BE
:1009C0007B6800220F216FF0010001F0E6FA0A4B6C
:1009D0005B68FB60FB6823F0E063FB60FB6843F04F
:1009E0000073FB60044AFB68536000BF1037BD46CC
:1009F00080BD00BF001002400000014080B588B0FB
:100A000000AF786007F1100300221A605A609A6004
:100A1000DA607B681B68144A934221D1134B9B69AF
:100A2000124A43F400739361104B9B6903F4007303
:100A3000FB60FB680D4B9B690C4A43F00803936114
:100A40000A4B9B6903F00803BB60BB6801233B6151
:100A500003237B6107F110031946054801F0C8FA2A
:100A600000BF2037BD4680BD002401400010024079
:100A7000000C014080B588B000AF786007F110032A
:100A800000221A605A609A60DA607B681B681C4A10
:100A9000934231D11B4BDB691A4A43F00073D36197
:100AA000184BDB6903F00073FB60FB68154B9B6917
:100AB000144A43F004039361124B9B6903F004034F
:100AC000BB60BB684FF400633B6100237B61002384
:100AD000BB6107F1100319460B4801F089FA4FF486
:100AE00080533B6102237B610323FB6107F1100309
:100AF0001946054801F07CFA00BF2037BD4680BD8D
:100B000000640040001002400008014080B58CB035
:100B100000AF78600023BB6200237B62002387F86C
:100B20002F302E4B9B692D4A43F4006393612B4B6E
:100B30009B6903F40063BB60BB6807F10C0207F11B
:100B400010031146184602F021F802F00BF8B862C3
:100B5000BB6A234AA2FB03239B0C013B7B62214B14
:100B6000214A1A601F4B40F2E732DA601D4A7B6A65
:100B700053601C4B00221A611A4B00229A60194BD9
:100B800000229A61174802F0C5F9034687F82F3012
:100B900097F82F30002B1BD1124802F013FA0346AE
:100BA00087F82F3097F82F30002B11D1192001F042
:100BB00010FA7B680F2B08D800227968192001F001
:100BC000ECF90A4A7B68136002E0012387F82F30B2
:100BD00097F82F3018463037BD4680BD00100240D0
:100BE00083DE1B43FC000020002C01400400002099
:100BF00080B400AFFEE780B400AFFEE780B400AF82
:100C0000FEE780B400AFFEE780B400AFFEE780B43B
:100C100000AF00BFBD4680BC704780B500AF01206B
:100C200001F0AAFB00BF80BD80B500AF022001F03B
:100C3000A3FB00BF80BD80B500AF042001F09CFB8A
:100C400000BF80BD80B500AF082001F095FB00BF5C
:100C500080BD80B500AF102001F08EFB00BF80BDCD
:100C600080B500AF202001F087FB402001F084FB1D
:100C700000BF80BD80B500AF024802F0EFF900BFB1
:100C800080BD00BFFC00002080B500AF4FF40040E5
:100C900001F072FB00BF80BD80B400AF00BFBD4655
:100CA00080BC70470C480D490D4A002302E0D4581F
:100CB000C4500433C4188C42F9D30A4A0A4C0023A6
:100CC00001E013600432A242FBD3FFF7E5FF04F01A
:100CD000CDFFFFF7BBFA7047000000201000002096
:100CE000E45D000810000020901A0020FEE70000DC
:100CF00080B500AF084B1B68074A43F01003136030
:100D0000032001F03FF90F20FFF700FFFFF73EFE41
:100D10000023184680BD00BF0020024080B400AF11
:100D2000054B1B781A46054B1B681344034A136096
:100D300000BFBD4680BC7047080000204401002071
:100D400080B400AF024B1B681846BD4680BC70479C
:100D50004401002080B584B000AF7860FFF7F0FF59
:100D6000B8607B68FB60FB68B3F1FF3F05D00A4BBE
:100D70001B781A46FB681344FB6000BFFFF7E0FFD7
:100D80000246BB68D31AFA689A42F7D800BF00BF80
:100D90001037BD4680BD00BF0800002080B586B07A
:100DA00000AF78600023FB7500233B610023BB602C
:100DB0000023FB607B68002B01D10123BEE07B6830
:100DC0009B68002B7B689B6A002B09D17B68002203
:100DD000DA627B68002283F824207868FFF70EFE31
:100DE000786800F0F1FB0346FB757B689B6A03F0B3
:100DF0001003002B40F09980FB7D002B40F0958084
:100E00007B689B6A23F4885323F0020343F00202B9
:100E10007B689A627B685A687B68DB691A437B68E7
:100E20001B7B5B001343BA681343BB607B689B6802
:100E3000B3F5807F03D07B689B68012B02D14FF410
:100E4000807300E000233A6913433B617B681B7D9C
:100E5000012B19D17B681B7B002B09D17B689B6917
:100E6000013B5A033B69134343F400633B610BE0CE
:100E70007B689B6A43F020027B689A627B68DB6A2E
:100E800043F001027B68DA627B681B685B6823F4CD
:100E900069417B681B683A690A435A607B681B6832
:100EA0009A68284B13407A681268B9680B439360BC
:100EB0007B689B68B3F5807F03D07B689B68012BC0
:100EC00004D17B681B69013B1B05FB607B681B68C9
:100ED000DB6A23F470017B681B68FA680A43DA62F4
:100EE0007B681B689A68184B1340BA689A420BD10A
:100EF0007B680022DA627B689B6A23F0030343F07D
:100F000001027B689A6218E07B689B6A23F01203F7
:100F100043F010027B689A627B68DB6A43F001024F
:100F20007B68DA620123FB7507E07B689B6A43F00C
:100F300010027B689A620123FB75FB7D1846183707
:100F4000BD4680BDFDF7E1FFFE0E1FFF80B584B0FA
:100F500000AF78600023FB737B6893F82430012B8B
:100F600001D1022398E07B68012283F8242078686D
:100F700000F0D0FA0346FB73FB7B002B40F0878028
:100F80007B689B6A23F4407323F0010343F480726F
:100F90007B689A627B681B68414A934205D1414B4A
:100FA0005B6803F47023002B15D17B689B6A23F4E4
:100FB00080127B689A627B681B685B6803F48063BD
:100FC000002B26D07B689B6A23F4405343F4805265
:100FD0007B689A621DE07B689B6A43F480127B68A1
:100FE0009A627B681B682F4A934204D07B681B6817
:100FF0002B4A93420DD12B4B5B6803F48063002B8B
:1010000007D07B689B6A23F4405343F480527B688B
:101010009A627B689B6A03F48053002B06D07B683E
:10102000DB6A23F006027B68DA6202E07B6800225A
:10103000DA627B68002283F824207B681B686FF0EB
:1010400002021A607B681B689B6803F46023B3F597
:10105000602F13D17B681B68114A934205D1114B55
:101060005B6803F47023002B08D17B681B689A68C7
:101070007B681B6842F4A0029A600CE07B681B68E6
:101080009A687B681B6842F480129A6003E07B6870
:10109000002283F82420FB7B18461037BD4680BD14
:1010A000002801400024014080B584B000AF786082
:1010B0000023FB737B6893F82430012B01D10223BA
:1010C0001AE07B68012283F82420786800F07CFA1B
:1010D0000346FB73FB7B002B09D17B689B6A23F4DF
:1010E000885323F0010343F001027B689A627B6816
:1010F000002283F82420FB7B18461037BD4680BDB4
:1011000090B587B000AF7860396000237B61002321
:10111000FB6000233B61FFF713FE78617B681B686F
:101120009B6803F48073002B0BD07B689B6A43F0B1
:1011300020027B689A627B68002283F824200123C6
:10114000D3E07B681B685B6803F48073002B31D1AC
:101150007B681B68DB6A03F47003002B2AD121E053
:101160003B68B3F1FF3F1DD03B68002B07D0FFF772
:10117000E7FD02467B69D31A3A689A4212D27B682D
:101180001B681B6803F00203002B0BD17B689B6A72
:1011900043F004027B689A627B68002283F8242073
:1011A0000323A2E07B681B681B6803F00203002B8B
:1011B000D6D070E04F4B1C68022001F0EBFD0346D7
:1011C000B4FBF3F27B681B6819694B4B0B40002B97
:1011D00018D17B681B68D968484B0B40002B11D194
:1011E0007B681B681969464B0B40002B08D17B6854
:1011F0001B68D968434B0B40002B01D1142320E01E
:1012000029231EE07B681B6819693D4B0B40002BAE
:1012100006D17B681B68D9683A4B0B40002B0DD078
:101220007B681B681969384B0B40002B08D17B6821
:101230001B68D968344B0B40002B01D1542300E0CC
:10124000FC2302FB03F33B6121E03B68B3F1FF3F6A
:101250001AD03B68002B07D0FFF772FD02467B696E
:10126000D31A3A689A420FD2FB683A699A420BD96C
:101270007B689B6A43F004027B689A627B68002269
:1012800083F82420032330E0FB680133FB60FB6814
:101290003A699A42D9D87B681B686FF012021A60CB
:1012A0007B689B6A43F400727B689A627B681B6868
:1012B0009B6803F46023B3F5602F15D17B681B7B1B
:1012C000002B11D17B689B6A23F480727B689A6241
:1012D0007B689B6A03F48053002B05D17B689B6A73
:1012E00043F001027B689A62002318461C37BD4612
:1012F00090BD00BF000000202449922424499200A0
:1013000092244912922449004992240080B483B067
:1013100000AF78607B681B68DB6C18460C37BD46F5
:1013200080BC704780B485B000AF7860396000231E
:10133000FB730023BB607B6893F82430012B01D141
:101340000223DCE07B68012283F824203B685B6891
:10135000062B1CD87B681B68596B3B685A68134680
:101360009B001344053B1F2202FA03F3DB431940A1
:101370003B6818683B685A6813469B001344053B5A
:1013800000FA03F27B681B680A435A633CE03B683F
:101390005B680C2B1CD87B681B68196B3B685A6810
:1013A00013469B001344233B1F2202FA03F3DB4343
:1013B00019403B6818683B685A6813469B00134401
:1013C000233B00FA03F27B681B680A431A631BE0A5
:1013D0007B681B68D96A3B685A6813469B001344B4
:1013E000413B1F2202FA03F3DB4319403B681868B4
:1013F0003B685A6813469B001344413B00FA03F2D2
:101400007B681B680A43DA623B681B68092B1CD99E
:101410007B681B68D9683B681A6813465B001344F5
:101420001E3B072202FA03F3DB4319403B6898682E
:101430003B681A6813465B0013441E3B00FA03F234
:101440007B681B680A43DA6019E07B681B681969CE
:101450003B681A6813465B001344072202FA03F341
:10146000DB4319403B6898683B681A6813465B0089
:10147000134400FA03F27B681B680A431A613B6855
:101480001B68102B03D03B681B68112B32D17B6883
:101490001B681D4A934225D17B681B689B6803F437
:1014A0000003002B26D17B681B689A687B681B6849
:1014B00042F400029A603B681B68102B1AD1134B50
:1014C0001B68134AA2FB03239A0C13469B00134488
:1014D0005B00BB6002E0BB68013BBB60BB68002BEC
:1014E000F9D107E07B689B6A43F020027B689A622F
:1014F0000123FB737B68002283F82420FB7B1846C2
:101500001437BD4680BC7047002401400000002015
:1015100083DE1B4380B584B000AF78600023FB609E
:101520000023BB607B681B689B6803F00103012BF1
:1015300040D07B681B689A687B681B6842F0010298
:101540009A601F4B1B681F4AA2FB03239B0CBB60C6
:1015500002E0BB68013BBB60BB68002BF9D1FFF721
:10156000EFFBF8601FE0FFF7EBFB0246FB68D31AC6
:10157000022B18D97B681B689B6803F00103012BC1
:1015800011D07B689B6A43F010027B689A627B688B
:10159000DB6A43F001027B68DA627B68002283F831
:1015A0002420012307E07B681B689B6803F001038C
:1015B000012BD8D1002318461037BD4680BD00BF8F
:1015C0000000002083DE1B4380B584B000AF78604C
:1015D0000023FB607B681B689B6803F00103012B01
:1015E0002ED17B681B689A687B681B6822F0010219
:1015F0009A60FFF7A5FBF8601BE0FFF7A1FB02462E
:10160000FB68D31A022B14D97B681B689B6803F014
:101610000103012B0DD17B689B6A43F010027B68AC
:101620009A627B68DB6A43F001027B68DA6201231D
:1016300007E07B681B689B6803F00103012BDCD08B
:10164000002318461037BD4680BD80B584B000AF7A
:1016500078607B68002B01D10123EDE07B6893F873
:101660002030DBB2002B02D17868FFF703FA7B68E9
:101670001B681A687B681B6842F001021A60FFF75A
:101680005FFBF86012E0FFF75BFB0246FB68D31AD2
:101690000A2B0BD97B685B6A43F400327B685A6281
:1016A0007B68052283F820200123C5E07B681B6846
:1016B0005B6803F00103002BE5D07B681B681A68A8
:1016C0007B681B6822F002021A60FFF739FBF860A2
:1016D00012E0FFF735FB0246FB68D31A0A2B0BD941
:1016E0007B685B6A43F400327B685A627B68052240
:1016F00083F8202001239FE07B681B685B6803F070
:101700000203002BE5D17B681B7E012B08D17B688F
:101710001B681A687B681B6842F080021A6007E049
:101720007B681B681A687B681B6822F080021A605D
:101730007B685B7E012B08D17B681B681A687B681D
:101740001B6842F040021A6007E07B681B681A6859
:101750007B681B6822F040021A607B689B7E012B2D
:1017600008D17B681B681A687B681B6842F02002FE
:101770001A6007E07B681B681A687B681B6822F0A8
:1017800020021A607B68DB7E012B08D17B681B6816
:101790001A687B681B6822F010021A6007E07B68F9
:1017A0001B681A687B681B6842F010021A607B682D
:1017B0001B7F012B08D17B681B681A687B681B683C
:1017C00042F008021A6007E07B681B681A687B68B1
:1017D0001B6822F008021A607B685B7F012B08D12E
:1017E0007B681B681A687B681B6842F004021A60F9
:1017F00007E07B681B681A687B681B6822F004029C
:101800001A607B689A687B68DB681A437B681B698F
:101810001A437B685B6942EA03017B685B685A1E76
:101820007B681B680A43DA617B6800225A627B6826
:10183000012283F82020002318461037BD4680BDC2
:1018400080B487B000AF786039607B681B687B61CB
:101850007B6893F82030FB74FB7C012B03D0FB7C6E
:10186000022B40F0AA807B69D3F8003243F00102DA
:101870007B69C3F800223B685B6903F01F03012208
:1018800002FA03F3FB607B69D3F81C22FB68DB439D
:101890001A407B69C3F81C223B68DB69002B23D10B
:1018A0007B69D3F80C22FB68DB431A407B69C3F8E1
:1018B0000C223B68DB6819043B685B689BB23A68A2
:1018C000526919437B69483243F832103B689B6880
:1018D00019043B681B689AB23B685B690A437969E3
:1018E0004833DB000B445A603B68DB69012B22D193
:1018F0007B69D3F80C22FB681A437B69C3F80C227E
:101900003B681B6819043B685B689BB23A68526984
:1019100019437B69483243F832103B689B681904CD
:101920003B68DB689AB23B685B690A437969483374
:10193000DB000B445A603B689B69002B09D17B6933
:10194000D3F80422FB68DB431A407B69C3F8042206
:1019500007E07B69D3F80422FB681A437B69C3F86C
:1019600004223B681B69002B09D17B69D3F8142240
:10197000FB68DB431A407B69C3F8142207E07B69EC
:10198000D3F81422FB681A437B69C3F814223B681E
:101990001B6A012B07D17B69D3F81C22FB681A4311
:1019A0007B69C3F81C227B69D3F8003223F0010263
:1019B0007B69C3F80022002306E07B685B6A43F47E
:1019C00080227B685A62012318461C37BD4680BCC2
:1019D000704780B584B000AF78607B6893F82030A2
:1019E000DBB2012B2ED17B68022283F820207B689A
:1019F0001B681A687B681B6822F001021A60FFF7F7
:101A00009FF9F86012E0FFF79BF90246FB68D31AD2
:101A10000A2B0BD97B685B6A43F400327B685A62FD
:101A20007B68052283F82020012312E07B681B6875
:101A30005B6803F00103002BE5D17B6800225A624A
:101A4000002306E07B685B6A43F400227B685A62ED
:101A5000012318461037BD4680BD80B489B000AF61
:101A6000F860B9607A603B60FB6893F82030FB77E0
:101A7000FB681B689B68BB61FB7F012B03D0FB7F6E
:101A8000022B40F0B880BB6903F08063002B0AD1C1
:101A9000BB6903F00063002B05D1BB6903F08053E1
:101AA000002B00F0A080BB691B0E03F003037B61D9
:101AB0007B69022B07D9FB685B6A43F40002FB6871
:101AC0005A6201239EE001227B699A403B681A60BA
:101AD000BB689B68002B0DD1BB681B685A05BB68AF
:101AE000DB68F96809681A437B6918331B010B44EA
:101AF0001A600FE0BB685B68DA00BB689B681A433A
:101B0000BB68DB68F96809681A437B6918331B01F5
:101B10000B441A60FB681968BB681A697B69183343
:101B20001B010B4404331A60BB681B7D012B11D1D0
:101B3000FB681A687B6918331B01134404331B6864
:101B4000FA68116843F480727B6918331B010B44F7
:101B500004331A607B6807331B781A067B680633E8
:101B60001B781B041A437B6805331B781B02134345
:101B70007A68043212781046FA68116843EA000263
:101B80007B691B010B4403F5C6731A607B68033342
:101B90001B781A067B6802331B781B041A437B6888
:101BA00001331B781B0213437A6812781046FA68D7
:101BB000116843EA00027B691B010B4403F5C473FF
:101BC0001A60FB681A687B6918331B0113441B6891
:101BD000FA68116843F001027B6918331B010B445A
:101BE0001A6000230EE0FB685B6A43F40012FB6896
:101BF0005A62012306E0FB685B6A43F48022FB68BB
:101C00005A62012318462437BD4680BC704780B411
:101C100087B000AFF860B9607A603B60FB6893F80A
:101C20002030FB75FB7D012B03D0FB7D022B40F0A8
:101C3000F380BB68002B0ED1FB681B68DB6803F0E8
:101C40000303002B16D1FB685B6A43F40012FB68A8
:101C50005A620123E7E0FB681B681B6903F003037A
:101C6000002B07D1FB685B6A43F40012FB685A62E1
:101C70000123D8E0FB681A68BB681B331B011344BF
:101C80001B6803F004027B689A607B689B68002BEA
:101C90000CD1FB681A68BB681B331B0113441B681B
:101CA0005B0DC3F30A027B681A600BE0FB681A68DD
:101CB000BB681B331B0113441B68DB0823F0604225
:101CC0007B685A60FB681A68BB681B331B011344AE
:101CD0001B6803F002027B68DA60FB681A68BB6865
:101CE0001B331B01134404331B6803F00F027B6892
:101CF0001A61FB681A68BB681B331B011344043369
:101D00001B681B0ADAB27B689A61FB681A68BB68B9
:101D10001B331B01134404331B681B0C9AB27B68F2
:101D20005A61FB681A68BB681B01134403F5DC7336
:101D30001B68DAB23B681A70FB681A68BB681B0143
:101D4000134403F5DC731B681A0A3B680133D2B2F3
:101D50001A70FB681A68BB681B01134403F5DC7337
:101D60001B681A0C3B680233D2B21A70FB681A68FF
:101D7000BB681B01134403F5DC731B681A0E3B6838
:101D80000333D2B21A70FB681A68BB681B01134494
:101D900003F5DE731A683B680433D2B21A70FB682D
:101DA0001A68BB681B01134403F5DE731B681A0A2B
:101DB0003B680533D2B21A70FB681A68BB681B0116
:101DC000134403F5DE731B681A0C3B680633D2B26A
:101DD0001A70FB681A68BB681B01134403F5DE73B5
:101DE0001B681A0E3B680733D2B21A70BB68002B0F
:101DF00008D1FB681B68DA68FB681B6842F02002A8
:101E0000DA6007E0FB681B681A69FB681B6842F030
:101E100020021A61002306E0FB685B6A43F480221B
:101E2000FB685A62012318461C37BD4680BC7047C8
:101E300080B485B000AF78607B6803F00703FB6077
:101E40000C4BDB68BB60BA684FF6FF031340BB6006
:101E5000FB681A02BB68134343F0BF6343F40033CB
:101E6000BB60044ABB68D36000BF1437BD4680BC6A
:101E7000704700BF00ED00E080B400AF044BDB68AA
:101E80001B0A03F007031846BD4680BC704700BF1D
:101E900000ED00E080B483B000AF0346FB7197F91A
:101EA0000730002B0BDBFB7903F01F02064997F983
:101EB00007305B09012000FA02F241F8232000BF3D
:101EC0000C37BD4680BC704700E100E080B483B0B1
:101ED00000AF03463960FB7197F90730002B0ADB2E
:101EE0003B68DAB20C4997F907301201D2B20B44C1
:101EF00083F800230AE03B68DAB20849FB7903F073
:101F00000F03043B1201D2B20B441A7600BF0C3708
:101F1000BD4680BC704700BF00E100E000ED00E07E
:101F200080B489B000AFF860B9607A60FB6803F0F4
:101F30000703FB61FB69C3F10703042B28BF0423DC
:101F4000BB61FB690433062B02D9FB69033B00E04C
:101F500000237B614FF0FF32BB6902FA03F3DA43DF
:101F6000BB681A407B699A404FF0FF317B6901FAE8
:101F700003F3D9437B680B40134318462437BD460F
:101F800080BC704780B582B000AF78607868FFF79A
:101F90004FFF00BF0837BD4680BD80B586B000AF9B
:101FA0000346B9607A60FB7300237B61FFF764FF2F
:101FB00078617A68B9687869FFF7B2FF024697F9E5
:101FC0000F3011461846FFF781FF00BF1837BD4696
:101FD00080BD80B582B000AF0346FB7197F9073032
:101FE0001846FFF757FF00BF0837BD4680BD000009
:101FF00080B48BB000AF7860396000237B6200232F
:102000003B6261E101227B6A02FA03F3FB613B68F8
:102010001B68FA691340BB61BA69FB699A4240F0D8
:1020200050813B685B68974A93425ED0954A9342E1
:1020300075D8954A934258D0934A93426FD8934AA1
:10204000934252D0914A934269D8914A93424CD0DC
:102050008F4A934263D88F4A934246D08D4A934227
:102060005DD8122B2AD8122B59D801A252F823F08E
:10207000EB200008C5200008D7200008192100081F
:102080001F2100081F2100081F2100081F21000830
:102090001F2100081F2100081F2100081F21000820
:1020A0001F2100081F2100081F2100081F21000810
:1020B0001F210008CD200008E1200008764A934245
:1020C00013D02CE03B68DB683B6229E03B68DB68AF
:1020D00004333B6224E03B68DB6808333B621FE06B
:1020E0003B68DB680C333B621AE03B689B68002B63
:1020F00002D104233B6213E03B689B68012B05D1AE
:1021000008233B627B68FA691A6109E008233B6295
:102110007B68FA695A6103E000233B6200E000BF7C
:10212000BB69FF2B01D87B6801E07B6804337B61CE
:10213000BB69FF2B02D87B6A9B0002E07B6A083BED
:102140009B003B617B691A680F213B6901FA03F32D
:10215000DB431A40396A3B6901FA03F31A437B698E
:102160001A603B685B6803F08053002B00F0A98085
:102170004A4B9B69494A43F001039361474B9B6972
:1021800003F00103BB60BB68454A7B6A9B080233CE
:1021900052F82330FB607B6A03F003039B000F229D
:1021A00002FA03F3DB43FA681340FB607B683D4AA5
:1021B00093420DD07B683C4A934207D07B683B4AF0
:1021C000934201D1022304E0032302E0012300E053
:1021D00000237A6A02F0030292009340FA681343E4
:1021E000FB602F497B6A9B080233FA6841F8232081
:1021F0003B685B6803F48033002B06D02C4B1A68D5
:102200002B49BB6913430B6006E0294B1A68BB6975
:10221000DB43274913400B603B685B6803F40033E2
:10222000002B06D0224B5A682149BB6913434B60EF
:1022300006E01F4B5A68BB69DB431D4913404B60E6
:102240003B685B6803F48013002B06D0184B9A6838
:102250001749BB6913438B6006E0154B9A68BB694D
:10226000DB43134913408B603B685B6803F4001346
:10227000002B1FD00E4BDA680D49BB691343CB60AE
:102280001FE000BF000032100000311000002210DB
:102290000000211000001210000011100010024078
:1022A0000000014000080140000C01400010014006
:1022B000000401400B4BDA68BB69DB43094913405A
:1022C000CB607B6A01337B623B681A687B6A22FAC7
:1022D00003F3002B7FF496AE00BF00BF2C37BD4642
:1022E00080BC70470004014080B485B000AF7860C6
:1022F0000B467B807B689A687B881340002B02D05A
:102300000123FB7301E00023FB73FB7B18461437AA
:10231000BD4680BC704780B483B000AF78600B4688
:102320007B8013467B707B78002B03D07A887B6898
:102330001A6103E07B881A047B681A6100BF0C37BE
:10234000BD4680BC704780B485B000AF78600B4656
:102350007B807B68DB68FB607A88FB6813401A042B
:10236000FB68D9437B880B401A437B681A6100BF26
:102370001437BD4680BC704780B582B000AF0346BD
:10238000FB80084B5A69FB881340002B06D0054A96
:10239000FB885361FB88184600F006F800BF083739
:1023A000BD4680BD0004014080B483B000AF034649
:1023B000FB8000BF0C37BD4680BC704780B586B03F
:1023C00000AF78607B68002B01D1012372E27B684B
:1023D0001B6803F00103002B00F08780924B5B68C1
:1023E00003F00C03042B0CD08F4B5B6803F00C0341
:1023F000082B12D18C4B5B6803F48033B3F5803F1C
:102400000BD1894B1B6803F40033002B6CD07B6825
:102410005B68002B68D101234CE27B685B68B3F5F5
:10242000803F06D1804B1B687F4A43F480331360A2
:102430002EE07B685B68002B0CD17B4B1B687A4AD3
:1024400023F480331360784B1B68774A23F480238E
:1024500013601DE07B685B68B3F5A02F0CD1724B55
:102460001B68714A43F4802313606F4B1B686E4AEC
:1024700043F4803313600BE06B4B1B686A4A23F410
:1024800080331360684B1B68674A23F48023136012
:102490007B685B68002B13D0FEF752FC386108E0C4
:1024A000FEF74EFC02463B69D31A642B01D9032385
:1024B00000E25D4B1B6803F40033002BF0D014E006
:1024C000FEF73EFC386108E0FEF73AFC02463B6945
:1024D000D31A642B01D90323ECE1534B1B6803F49B
:1024E0000033002BF0D100E000BF7B681B6803F0D5
:1024F0000203002B63D04C4B5B6803F00C03002BF2
:102500000BD0494B5B6803F00C03082B1CD1464BE6
:102510005B6803F48033002B16D1434B1B6803F038
:102520000203002B05D07B681B69012B01D001231E
:10253000C0E13D4B1B6823F0F8027B685B69DB0060
:10254000394913430B603AE07B681B69002B20D0AC
:10255000364B01221A60FEF7F3FB386108E0FEF704
:10256000EFFB02463B69D31A022B01D90323A1E1F9
:102570002D4B1B6803F00203002BF0D02A4B1B6885
:1025800023F0F8027B685B69DB00274913430B608B
:1025900015E0264B00221A60FEF7D2FB386108E0F6
:1025A000FEF7CEFB02463B69D31A022B01D9032367
:1025B00080E11D4B1B6803F00203002BF0D17B6808
:1025C0001B6803F00803002B3AD07B689B69002B43
:1025D00019D0174B01221A60FEF7B2FB386108E0F0
:1025E000FEF7AEFB02463B69D31A022B01D9032347
:1025F00060E10D4B5B6A03F00203002BF0D0012079
:1026000000F0F4FA1CE00A4B00221A60FEF798FB77
:1026100038610FE0FEF794FB02463B69D31A022BA8
:1026200008D9032346E100BF0010024000004242E7
:1026300080044242924B5B6A03F00203002BE9D113
:102640007B681B6803F00403002B00F0A6800023C6
:10265000FB758B4BDB6903F08053002B0DD1884B4E
:10266000DB69874A43F08053D361854BDB6903F014
:102670008053BB60BB680123FB75824B1B6803F46E
:102680008073002B18D17F4B1B687E4A43F4807304
:102690001360FEF755FB386108E0FEF751FB024678
:1026A0003B69D31A642B01D9032303E1754B1B68E3
:1026B00003F48073002BF0D07B68DB68012B06D11C
:1026C0006F4B1B6A6E4A43F0010313622DE07B6877
:1026D000DB68002B0CD16A4B1B6A694A23F00103AB
:1026E0001362674B1B6A664A23F0040313621CE003
:1026F0007B68DB68052B0CD1614B1B6A604A43F099
:10270000040313625E4B1B6A5D4A43F001031362CC
:102710000BE05B4B1B6A5A4A23F001031362584BD0
:102720001B6A574A23F0040313627B68DB68002BA3
:1027300015D0FEF705FB38610AE0FEF701FB024603
:102740003B69D31A41F28832934201D90323B1E0A5
:102750004B4B1B6A03F00203002BEED014E0FEF794
:10276000EFFA38610AE0FEF7EBFA02463B69D31A4A
:1027700041F28832934201D903239BE0404B1B6A0C
:1027800003F00203002BEED1FB7D012B05D13C4B66
:10279000DB693B4A23F08053D3617B68DB69002B04
:1027A00000F08780364B5B6803F00C03082B61D088
:1027B0007B68DB69022B46D1334B00221A60FEF79F
:1027C000BFFA386108E0FEF7BBFA02463B69D31A4C
:1027D000022B01D903236DE0294B1B6803F0007322
:1027E000002BF0D17B681B6AB3F5803F08D1244BE6
:1027F0005B6823F400327B689B68214913434B607C
:102800001F4B5B6823F474127B68196A7B685B6AF0
:102810000B431B4913434B601B4B01221A60FEF70D
:102820008FFA386108E0FEF78BFA02463B69D31A4B
:10283000022B01D903233DE0114B1B6803F0007309
:10284000002BF0D035E0104B00221A60FEF778FA2A
:10285000386108E0FEF774FA02463B69D31A022B8E
:1028600001D9032326E0064B1B6803F00073002BFD
:10287000F0D11EE07B68DB69012B07D1012319E051
:102880000010024000700040600042420B4B5B6849
:10289000FB60FB6803F480327B681B6A9A4206D1B6
:1028A000FB6803F470127B685B6A9A4201D00123D3
:1028B00000E0002318461837BD4680BD00100240D6
:1028C00080B584B000AF786039607B68002B01D19F
:1028D0000123D0E06A4B1B6803F007033A689A4271
:1028E00010D9674B1B6823F0070265493B68134307
:1028F0000B60634B1B6803F007033A689A4201D0F0
:102900000123B8E07B681B6803F00203002B20D092
:102910007B681B6803F00403002B05D0594B5B68F0
:10292000584A43F4E06353607B681B6803F0080374
:10293000002B05D0534B5B68524A43F460535360FD
:10294000504B5B6823F0F0027B689B684D49134352
:102950004B607B681B6803F00103002B40D07B6851
:102960005B68012B07D1474B1B6803F40033002B36
:1029700015D101237FE07B685B68022B07D1414BB7
:102980001B6803F00073002B09D1012373E03D4B5A
:102990001B6803F00203002B01D101236BE0394BCC
:1029A0005B6823F003027B685B68364913434B6026
:1029B000FEF7C6F9F8600AE0FEF7C2F90246FB68C6
:1029C000D31A41F28832934201D9032353E02D4BAD
:1029D0005B6803F00C027B685B689B009A42EBD15A
:1029E000274B1B6803F007033A689A4210D2244B26
:1029F0001B6823F0070222493B6813430B60204BFE
:102A00001B6803F007033A689A4201D0012332E0C1
:102A10007B681B6803F00403002B08D0194B5B682C
:102A200023F4E0627B68DB68164913434B607B68E4
:102A30001B6803F00803002B09D0124B5B6823F4DA
:102A400060527B681B69DB000E4913434B6000F04A
:102A500021F802460B4B5B681B0903F00F030A4980
:102A6000CB5C22FA03F3094A1360094B1B68184632
:102A7000FEF74CF8002318461037BD4680BD00BF56
:102A80000020024000100240C45D00080000002049
:102A90000400002090B48AB000AF294B3C1D0FCB3E
:102AA00084E80F0040F201233B800023FB610023F8
:102AB000BB6100237B6200237B6100233B62214BCF
:102AC0005B68FB61FB6903F00C03042B02D0082B4D
:102AD00003D02BE01C4B3B622BE0FB699B0C03F00B
:102AE0000F0328333B4413F8243C7B61FB6903F458
:102AF0008033002B12D0134B5B685B0C03F0010397
:102B000028333B4413F8283CBB617B690E4A03FB26
:102B100002F2BB69B2FBF3F37B6204E07B690B4A10
:102B200002FB03F37B627B6A3B6202E0064B3B6283
:102B300000BF3B6A18462837BD4690BC704700BFAF
:102B4000205D00080010024000127A0000093D00DC
:102B500080B400AF024B1B681846BD4680BC70476E
:102B60000000002080B500AFFFF7F2FF0246054BE2
:102B70005B68DB0A03F007030349CB5C22FA03F32B
:102B8000184680BD00100240D45D000880B483B0B8
:102B900000AF786039607B680F221A60114B5B6868
:102BA00003F003027B685A600E4B5B6803F0F0028F
:102BB0007B689A600B4B5B6803F4E0627B68DA60C9
:102BC000084B5B68DB0803F4E0627B681A61064B24
:102BD0001B6803F007023B681A6000BF0C37BD4654
:102BE00080BC7047001002400020024080B485B0D5
:102BF00000AF78600A4B1B680A4AA2FB03235B0AFA
:102C00007A6802FB03F3FB6000BFFB685A1EFA60A0
:102C1000002BF9D100BF00BF1437BD4680BC704700
:102C200000000020D34D621080B586B000AF786000
:102C300000233B610023FB607B681B6803F00103FA
:102C4000002B7DD00023FB754F4BDB6903F08053D5
:102C5000002B0DD14C4BDB694B4A43F08053D361C1
:102C6000494BDB6903F08053BB60BB680123FB75F4
:102C7000464B1B6803F48073002B18D1434B1B6831
:102C8000424A43F480731360FEF75AF8386108E053
:102C9000FEF756F802463B69D31A642B01D9032389
:102CA0006DE03A4B1B6803F48073002BF0D0364B79
:102CB0001B6A03F44073FB60FB68002B2ED07B681B
:102CC0005B6803F44073FA689A4227D02E4B1B6A64
:102CD00023F44073FB602E4B01221A602C4B002220
:102CE0001A60294AFB681362FB6803F00103002B9A
:102CF00014D0FEF725F838610AE0FEF721F8024605
:102D00003B69D31A41F28832934201D9032336E05A
:102D10001D4B1B6A03F00203002BEED01A4B1B6AFB
:102D200023F440727B685B68174913430B62FB7D99
:102D3000012B05D1144BDB69134A23F08053D36177
:102D40007B681B6803F00203002B08D00E4B5B6806
:102D500023F440427B689B680B4913434B607B68BC
:102D60001B6803F01003002B08D0074B5B6823F4AB
:102D700080027B68DB68044913434B6000231846DC
:102D80001837BD4680BD00BF0010024000700040F3
:102D90004004424290B58DB000AF7860584B07F1C7
:102DA0000C040FCB84E80F0040F201233B81002389
:102DB0007B620023FB6200233B620023FB61002354
:102DC000BB627B68102B0AD07B68102B00F28E80D0
:102DD0007B68012B49D07B68022B79D086E0494B78
:102DE0005B68FB61474B1B6803F08073002B7FD04F
:102DF000FB699B0C03F00F0330333B4413F8243C76
:102E00003B62FB6903F48033002B17D03D4B5B68BA
:102E10005B0C03F0010330333B4413F8283C7B6226
:102E2000FB6903F48033002B0DD0374A7B6AB2FB79
:102E3000F3F23B6A02FB03F3FB6204E03B6A334AB2
:102E400002FB03F3FB622F4B5B6803F48003B3F5D3
:102E5000800F02D1FB6ABB624AE0FB6A5B002C4A2E
:102E6000A2FB03235B08BB6242E0264B1B6AFB61AB
:102E7000FB6903F44073B3F5807F08D1FB6903F06D
:102E80000203002B03D04FF40043BB621FE0FB6939
:102E900003F44073B3F5007F09D11A4B5B6A03F06A
:102EA0000203002B03D049F64043BB620FE0FB69ED
:102EB00003F44073B3F5407F1CD1124B1B6803F43D
:102EC0000033002B16D04FF22443BB6212E011E016
:102ED000FFF748FE02460B4B5B689B0B03F00303B6
:102EE00001335B00B2FBF3F3BB6204E000BF02E01E
:102EF00000BF00E000BFBB6A18463437BD4690BD36
:102F0000305D00080010024000127A0000093D0008
:102F1000ABAAAAAA80B582B000AF78607B68002B0C
:102F200001D1012341E07B6893F83D30DBB2002BF7
:102F300006D17B68002283F83C20786800F039F8DD
:102F40007B68022283F83D207B681A687B68043323
:102F50001946104600F0AEF97B68012283F846203E
:102F60007B68012283F83E207B68012283F83F20A2
:102F70007B68012283F840207B68012283F841208E
:102F80007B68012283F842207B68012283F843207A
:102F90007B68012283F844207B68012283F8452066
:102FA0007B68012283F83D20002318460837BD4680
:102FB00080BD80B483B000AF786000BF0C37BD46E1
:102FC00080BC704780B485B000AF78607B6893F8B0
:102FD0003D30DBB2012B01D0012335E07B680222BA
:102FE00083F83D207B681B68DA687B681B6842F0C9
:102FF0000102DA607B681B68164A934209D07B683D
:103000001B68B3F1804F04D07B681B68124A93425F
:1030100011D17B681B689B6803F00703FB60FB68AA
:10302000062B10D07B681B681A687B681B6842F00F
:1030300001021A6007E07B681B681A687B681B68DE
:1030400042F001021A60002318461437BD4680BCC6
:10305000704700BF002C01400004004080B582B0E2
:1030600000AF78607B681B681B6903F00203022BCA
:1030700022D17B681B68DB6803F00203022B1BD1A3
:103080007B681B686FF002021A617B6801221A7765
:103090007B681B689B6903F00303002B03D07868EF
:1030A00000F0EDF805E0786800F0E0F8786800F0EE
:1030B000EFF87B6800221A777B681B681B6903F0B6
:1030C0000403042B22D17B681B68DB6803F0040334
:1030D000042B1BD17B681B686FF004021A617B68AC
:1030E00002221A777B681B689B6903F44073002BEC
:1030F00003D0786800F0C3F805E0786800F0B6F80F
:10310000786800F0C5F87B6800221A777B681B6836
:103110001B6903F00803082B22D17B681B68DB685E
:1031200003F00803082B1BD17B681B686FF00802B3
:103130001A617B6804221A777B681B68DB6903F0DD
:103140000303002B03D0786800F099F805E0786855
:1031500000F08CF8786800F09BF87B6800221A7702
:103160007B681B681B6903F01003102B22D17B685E
:103170001B68DB6803F01003102B1BD17B681B68F6
:103180006FF010021A617B6808221A777B681B684F
:10319000DB6903F44073002B03D0786800F06FF80C
:1031A00005E0786800F062F8786800F071F87B68F4
:1031B00000221A777B681B681B6903F00103012B4F
:1031C0000ED17B681B68DB6803F00103012B07D17C
:1031D0007B681B686FF001021A617868FDF7BEFB1F
:1031E0007B681B681B6903F08003802B0ED17B6812
:1031F0001B68DB6803F08003802B07D17B681B68AA
:103200006FF080021A61786800F0B5F87B681B687F
:103210001B6903F04003402B0ED17B681B68DB6801
:1032200003F04003402B07D17B681B686FF040021E
:103230001A61786800F035F87B681B681B6903F039
:103240002003202B0ED17B681B68DB6803F0200372
:10325000202B07D17B681B686FF020021A61786809
:1032600000F080F800BF0837BD4680BD80B483B051
:1032700000AF786000BF0C37BD4680BC704780B49B
:1032800083B000AF786000BF0C37BD4680BC70478C
:1032900080B483B000AF786000BF0C37BD4680BCFF
:1032A000704780B483B000AF786000BF0C37BD4674
:1032B00080BC704780B485B000AF786039607B68AF
:1032C0001B68FB607B68254A934207D07B68B3F19B
:1032D000804F03D07B68224A934208D1FB6823F0D9
:1032E0007003FB603B685B68FA681343FB607B68B4
:1032F0001A4A934207D07B68B3F1804F03D07B68B2
:10330000174A934208D1FB6823F44073FB603B6883
:10331000DB68FA681343FB60FB6823F080023B68BC
:103320005B691343FB607B68FA681A603B689A68C4
:103330007B68DA623B681A687B689A627B68074A36
:10334000934203D13B681A697B681A637B68012248
:103350005A6100BF1437BD4680BC7047002C014045
:103360000004004080B483B000AF786000BF0C3729
:10337000BD4680BC704780B483B000AF786000BFAA
:103380000C37BD4680BC704780B485B000AFEFF30A
:103390000583BB60BB68002B0FD1EFF310837B600C
:1033A0007B68002B09D1104B1B68022B09D1EFF36E
:1033B00011833B603B68002B03D06FF00503FB607B
:1033C0000CE0094B1B68002B05D1074B01221A604A
:1033D0000023FB6002E04FF0FF33FB60FB68184600
:1033E0001437BD4680BC70474801002080B584B0CA
:1033F00000AFEFF30583BB60BB68002B0FD1EFF389
:1034000010837B607B68002B09D1114B1B68022B5A
:1034100009D1EFF311833B603B68002B03D06FF0C1
:103420000503FB600EE00A4B1B68012B07D1084B1C
:1034300002221A6001F016F80023FB6002E04FF050
:10344000FF33FB60FB6818461037BD4680BD00BFE8
:103450004801002080B592B004AFF860B9607A608E
:1034600000237B61EFF305837B627B6A002B40F0D6
:103470009480EFF310833B623B6A002B40F08D8019
:10348000484B1B68022B06D1EFF31183FB61FB69EC
:10349000002B40F08280FB68002B7ED080233B63B2
:1034A0001823FB620023FB7607F11B037B634FF0BD
:1034B000FF33BB627B68002B45D07B681B68002B09
:1034C00002D07B681B687B637B689B69002B02D002
:1034D0007B689B69FB62FB6A002B08D0FB6A382B78
:1034E00005D87B685B6803F00103002B01D0002343
:1034F00054E07B685B69002B03D07B685B699B08A9
:103500003B637B689B68002B0ED07B68DB685B2B82
:103510000AD97B681B69002B06D07B685B69002B8E
:1035200002D00123BB6210E07B689B68002B0CD1AA
:103530007B68DB68002B08D17B681B69002B04D1FA
:103540000023BB6201E00023BB62BB6A012B10D1E8
:103550007B681B697A68926802920193FB6A009308
:10356000BB683A6B796BF86800F0E4FD03467B6159
:1035700013E0BB6A002B10D13B6B9AB207F1140326
:103580000193FB6A0093BB68796BF86800F02EFE2C
:103590000346012B01D000237B617B691846383735
:1035A000BD4680BD4801002080B485B000AFF86002
:1035B000B9607A60FB68064A1A60BB68054A1A60FF
:1035C0007B6880221A6000BF1437BD4680BC7047FC
:1035D0004C010020A801002080B485B000AFF86045
:1035E000B9607A60FB68074A1A60BB68064A1A60CD
:1035F0007B684FF480721A6000BF1437BD4680BCF0
:10360000704700BFA80300200404002080B483B0EA
:1036100000AF78607B6803F108027B685A607B68C2
:103620004FF0FF329A607B6803F108027B68DA6032
:103630007B6803F108027B681A617B6800221A60CC
:1036400000BF0C37BD4680BC704780B483B000AF6C
:1036500078607B6800221A6100BF0C37BD4680BCD1
:10366000704780B485B000AF786039607B685B6874
:10367000FB603B68FA685A60FB689A683B689A602E
:10368000FB689B683A685A60FB683A689A603B68D6
:103690007A681A617B681B685A1C7B681A6000BFD5
:1036A0001437BD4680BC704780B485B000AF7860E9
:1036B00039603B681B68BB60BB68B3F1FF3F03D157
:1036C0007B681B69FB600CE07B680833FB6002E0F1
:1036D000FB685B68FB60FB685B681B68BA689A42C2
:1036E000F6D2FB685A683B685A603B685B683A6888
:1036F0009A603B68FA689A60FB683A685A603B686F
:103700007A681A617B681B685A1C7B681A6000BF64
:103710001437BD4680BC704780B485B000AF786078
:103720007B681B69FB607B685B687A6892689A605B
:103730007B689B687A6852685A60FB685B687A6845
:103740009A4203D17B689A68FB685A607B680022C2
:103750001A61FB681B685A1EFB681A60FB681B68CD
:1037600018461437BD4680BC7047000080B584B051
:1037700000AF786039607B68FB60FB68002B0AD182
:103780004FF0500383F31188BFF36F8FBFF34F8F58
:10379000BB6000BFFEE701F091FFFB681A68FB68A1
:1037A000DB6BF968096C01FB03F31A44FB685A6090
:1037B000FB6800229A63FB681A68FB689A60FB68E2
:1037C0001A68FB68DB6B013BF968096C01FB03F3CA
:1037D0001A44FB68DA60FB68FF2283F84420FB6828
:1037E000FF2283F845203B68002B14D1FB681B693E
:1037F000002B1AD0FB681033184601F0BDF80346C1
:10380000002B12D00C4B4FF080521A60BFF34F8F39
:10381000BFF36F8F09E0FB6810331846FFF7F6FE21
:10382000FB6824331846FFF7F1FE01F077FF012310
:1038300018461037BD4680BD04ED00E080B58EB05F
:1038400002AFF860B9607A603B60FB68002B0AD178
:103850004FF0500383F31188BFF36F8FBFF34F8F87
:10386000BB6200BFFEE73B68002B0AD14FF050035C
:1038700083F31188BFF36F8FBFF34F8F7B6200BF5D
:10388000FEE77B68002B02D0BB68002B01D0012330
:1038900000E00023002B0AD14FF0500383F311887E
:1038A000BFF36F8FBFF34F8F3B6200BFFEE77B68B4
:1038B000002B02D1BB68002B01D1012300E00023C3
:1038C000002B0AD14FF0500383F31188BFF36F8FA1
:1038D000BFF34F8FFB6100BFFEE750237B617B6925
:1038E000502B0AD04FF0500383F31188BFF36F8F32
:1038F000BFF34F8FBB6100BFFEE73B68FB62FB6A13
:10390000002B0DD0FB6A012283F8462097F838205F
:10391000FB6A009313467A68B968F86800F005F806
:10392000FB6A18463037BD4680BD80B584B000AF15
:10393000F860B9607A60FB70BB68002B03D1BB698B
:10394000BA691A6002E0BB697A681A60BB69FA68F2
:10395000DA63BB69BA681A640121B869FFF706FF28
:10396000BB69FA7883F84C2000BF1037BD4680BD94
:1039700080B58EB000AFF860B9607A603B6000231C
:103980007B63FB683B633B6B002B0AD14FF050031A
:1039900083F31188BFF36F8FBFF34F8FBB6200BFFC
:1039A000FEE7BB68002B03D13B6B1B6C002B01D1E6
:1039B000012300E00023002B0AD14FF0500383F3D2
:1039C0001188BFF36F8FBFF34F8F7B6200BFFEE79D
:1039D0003B68022B03D13B6BDB6B012B01D1012335
:1039E00000E00023002B0AD14FF0500383F311882D
:1039F000BFF36F8FBFF34F8F3B6200BFFEE701F055
:103A00007DF90346002B02D17B68002B01D10123F5
:103A100000E00023002B0AD14FF0500383F31188FC
:103A2000BFF36F8FBFF34F8FFB6100BFFEE701F065
:103A300045FE3B6B9A6B3B6BDB6B9A4202D33B6858
:103A4000022B29D13A68B968386B00F007FAF8629E
:103A50003B6B5B6A002B10D03B6B2433184600F0A5
:103A60008BFF0346002B13D03F4B4FF080521A6060
:103A7000BFF34F8FBFF36F8F0AE0FB6A002B07D0B5
:103A8000394B4FF080521A60BFF34F8FBFF36F8FE7
:103A900001F044FE012363E07B68002B03D101F0B9
:103AA0003DFE00235CE07B6B002B06D107F1140385
:103AB000184600F0C5FF01237B6301F02FFE00F0E4
:103AC00037FD01F0FBFD3B6B93F844305BB2B3F183
:103AD000FF3F03D13B6B002283F844203B6B93F8FC
:103AE00045305BB2B3F1FF3F03D13B6B002283F85B
:103AF000452001F013FE3A1D07F114031146184644
:103B000000F0B4FF0346002B24D1386B00F09EFA7E
:103B10000346002B18D03B6B10337A6811461846C9
:103B200000F0DAFE386B00F029FA00F00FFD0346D2
:103B3000002B7FF47CAF0C4B4FF080521A60BFF328
:103B40004F8FBFF36F8F72E7386B00F017FA00F0FA
:103B5000FDFC6CE7386B00F011FA00F0F7FC002375
:103B600018463837BD4680BD04ED00E080B58EB004
:103B700000AFF860B9607A603B60FB683B633B6B09
:103B8000002B0AD14FF0500383F31188BFF36F8FDE
:103B9000BFF34F8F7B6200BFFEE7BB68002B03D1F2
:103BA0003B6B1B6C002B01D1012300E00023002B99
:103BB0000AD14FF0500383F31188BFF36F8FBFF327
:103BC0004F8F3B6200BFFEE73B68022B03D13B6B8C
:103BD000DB6B012B01D1012300E00023002B0AD174
:103BE0004FF0500383F31188BFF36F8FBFF34F8FF4
:103BF000FB6100BFFEE701F023FEEFF311824FF0FF
:103C0000500383F31188BFF36F8FBFF34F8FBA61F7
:103C10007B61BB69FB623B6B9A6B3B6BDB6B9A42D4
:103C200002D33B68022B2CD13B6B93F8453087F8CD
:103C30002B303A68B968386B00F010F997F92B30DF
:103C4000B3F1FF3F12D13B6B5B6A002B16D03B6B8D
:103C50002433184600F090FE0346002B0ED07B68FC
:103C6000002B0BD07B6801221A6007E097F82B30FD
:103C70000133DBB25AB23B6B83F8452001237B63EF
:103C800001E000237B63FB6A3B613B6983F311889E
:103C900000BF7B6B18463837BD4680BD80B58CB001
:103CA00000AFF860B9607A600023FB62FB68BB621A
:103CB000BB6A002B0AD14FF0500383F31188BFF386
:103CC0006F8FBFF34F8F3B6200BFFEE7BB68002BD7
:103CD00003D1BB6A1B6C002B01D1012300E0002340
:103CE000002B0AD14FF0500383F31188BFF36F8F7D
:103CF000BFF34F8FFB6100BFFEE700F0FFFF0346FD
:103D0000002B02D17B68002B01D1012300E00023AE
:103D1000002B0AD14FF0500383F31188BFF36F8F4C
:103D2000BFF34F8FBB6100BFFEE701F0C7FCBB6A6A
:103D30009B6B7B627B6A002B1FD0B968B86A00F06E
:103D4000F7F87B6A5A1EBB6A9A63BB6A1B69002B31
:103D50000FD0BB6A1033184600F00EFE0346002B4E
:103D600007D03D4B4FF080521A60BFF34F8FBFF327
:103D70006F8F01F0D3FC012369E07B68002B03D136
:103D800001F0CCFC002362E0FB6A002B06D107F1B6
:103D90001003184600F054FE0123FB6201F0BEFC44
:103DA00000F0C6FB01F08AFCBB6A93F844305BB2BA
:103DB000B3F1FF3F03D1BB6A002283F84420BB6A02
:103DC00093F845305BB2B3F1FF3F03D1BB6A0022E9
:103DD00083F8452001F0A2FC3A1D07F110031146BB
:103DE000184600F043FE0346002B23D1B86A00F0CA
:103DF00017F90346002B17D0BB6A24337A681146A3
:103E0000184600F069FDB86A00F0B8F800F09EFBB3
:103E10000346002B89D1104B4FF080521A60BFF33C
:103E20004F8FBFF36F8F80E7B86A00F0A7F800F0FC
:103E30008DFB7AE7B86A00F0A1F800F087FBB86A5A
:103E400000F0EEF80346002B3FF46FAF0023184656
:103E50003037BD4680BD00BF04ED00E080B586B0C0
:103E600000AFF860B9607A6000237B61FB689B6BF0
:103E70003B61FB681B6C002B0DD1FB681B68002BA2
:103E80004DD1FB685B68184600F056FF7861FB680F
:103E900000225A6043E07B68002B19D1FB689868C8
:103EA000FB681B6C1A46B96801F004FFFB689A684E
:103EB000FB681B6C1A44FB689A60FB689A68FB6895
:103EC0005B689A422BD3FB681A68FB689A6026E00D
:103ED000FB68D868FB681B6C1A46B96801F0EAFEFB
:103EE000FB68DA68FB681B6C5B421A44FB68DA60AB
:103EF000FB68DA68FB681B689A4207D2FB685A685D
:103F0000FB681B6C5B421A44FB68DA607B68022B1F
:103F100005D13B69002B02D03B69013B3B613B690A
:103F20005A1CFB689A637B6918461837BD4680BDEA
:103F300080B582B000AF786039607B681B6C002B65
:103F400018D07B68DA687B681B6C1A447B68DA607F
:103F50007B68DA687B685B689A4203D37B681A687F
:103F60007B68DA607B68D9687B681B6C1A463868A6
:103F700001F0A0FE00BF0837BD4680BD80B584B00B
:103F800000AF786001F09AFB7B6893F84530FB73D3
:103F900011E07B685B6A002B12D07B6824331846E3
:103FA00000F0EAFC0346002B01D000F0C1FDFB7BD2
:103FB000013BDBB2FB7397F90F30002BE9DC00E02B
:103FC00000BF7B68FF2283F8452001F0A7FB01F0CA
:103FD00075FB7B6893F84430BB7311E07B681B6909
:103FE000002B12D07B681033184600F0C5FC034646
:103FF000002B01D000F09CFDBB7B013BDBB2BB730F
:1040000097F90E30002BE9DC00E000BF7B68FF224F
:1040100083F8442001F082FB00BF1037BD4680BD0D
:1040200080B584B000AF786001F048FB7B689B6B83
:10403000002B02D10123FB6001E00023FB6001F0B3
:104040006DFBFB6818461037BD4680BD80B584B057
:1040500000AF786001F032FB7B689A6B7B68DB6BAA
:104060009A4202D10123FB6001E00023FB6001F0D2
:1040700055FBFB6818461037BD4680BD80B485B03F
:1040800000AF786039600023FB6014E00E4AFB68E3
:1040900052F83330002B0BD10B49FB683A6841F8DA
:1040A0003320094AFB68DB0013447A685A6006E053
:1040B000FB680133FB60FB68072BE7D900BF00BF3B
:1040C0001437BD4680BC70470408002080B586B018
:1040D00000AFF860B9607A60FB687B6101F0EEFACE
:1040E0007B6993F844305BB2B3F1FF3F03D17B6946
:1040F000002283F844207B6993F845305BB2B3F12A
:10410000FF3F03D17B69002283F8452001F006FBC5
:104110007B699B6B002B06D17B6924337A68B96875
:10412000184600F0FDFB7869FFF728FF00BF18373D
:10413000BD4680BD80B58EB004AFF860B9607A60CE
:104140003B607B6B002B0AD14FF0500383F3118847
:10415000BFF36F8FBFF34F8F3B6200BFFEE7BB6BB8
:10416000002B0AD14FF0500383F31188BFF36F8FF8
:10417000BFF34F8FFB6100BFFEE75C233B613B69F0
:104180005C2B0AD04FF0500383F31188BFF36F8F7D
:10419000BFF34F8FBB6100BFFEE7BB6B002B1ED090
:1041A0007B6B002B1BD0BB6B7B627B6A7A6B1A63C9
:1041B0007B6A022283F85920002303937B6A0293CF
:1041C00007F1140301933B6B00933B687A68B9686D
:1041D000F86800F050F8786A00F0D4F801E00023A5
:1041E0007B617B6918462837BD4680BD80B58CB0A1
:1041F00004AFF860B9603B601346FB80FB889B000E
:10420000184601F05BFB78617B69002B0ED05C20C7
:1042100001F054FBF861FB69002B03D0FB697A695C
:104220001A6305E0786901F00DFC01E00023FB61F1
:10423000FB69002B17D0FB69002283F85920FA880C
:1042400000230393FB690293FB6A0193BB6A00930B
:104250003B68B968F86800F00EF8F86900F092F869
:104260000123BB6102E04FF0FF33BB61BB6918461D
:104270002037BD4680BD80B588B000AFF860B9601A
:104280007A603B603B6B186B7B689B001A46A521EC
:1042900001F01EFD3B6B1A6B7B6803F18043013B11
:1042A0009B001344BB61BB6923F00703BB61BB697F
:1042B00003F00703002B0AD04FF0500383F311885B
:1042C000BFF36F8FBFF34F8F7B6100BFFEE700230B
:1042D000FB6112E0BA68FB69134419783A6BFB6919
:1042E000134434330A461A70BA68FB6913441B78C6
:1042F000002B06D0FB690133FB61FB690F2BE9D969
:1043000000E000BF3B6B002283F84320BB6A372BE1
:1043100001D93723BB623B6BBA6ADA623B6BBA6A7C
:10432000DA643B6B00221A653B6B04331846FFF7D7
:104330008CF93B6B18331846FFF787F93B6B3A6BE8
:104340001A61BB6AC3F138023B6B9A613B6B3A6BF3
:104350005A623B6B00225A653B6B002283F858205F
:104360003A68F968B86901F0BBF802463B6B1A601D
:10437000FB6A002B02D0FB6A3A6B1A6000BF203741
:10438000BD4680BD80B582B000AF786001F096F97F
:104390002D4B1B6801332C4A13602C4B1B68002BE0
:1043A00009D12A4A7B681360274B1B68012B10D167
:1043B00000F0E2FB0DE0264B1B68002B09D1234BDC
:1043C0001B68DA6A7B68DB6A9A4202D81F4A7B68FC
:1043D0001360204B1B6801331E4A13601D4B1A6883
:1043E0007B685A647B68DA6A1B4B1B689A4203D964
:1043F0007B68DB6A184A13607B68DA6A13469B00A5
:1044000013449B00154A1A447B680433194610462E
:10441000FFF727F901F082F90D4B1B68002B0ED036
:104420000A4B1B68DA6A7B68DB6A9A4207D20C4B3C
:104430004FF080521A60BFF34F8FBFF36F8F00BFF2
:104440000837BD4680BD00BF180D0020440800207D
:10445000240D0020340D0020200D002048080020ED
:1044600004ED00E080B58AB004AF0023BB600023F8
:104470007B603A46391D07F108031846FFF794F8A8
:1044800039687B68BA680292019300230093002385
:104490000A4621492148FFF74DFE0346204A136092
:1044A0001F4B1B68002B02D001237B6101E000231E
:1044B0007B617B69012B02D100F000FD78617B6993
:1044C000012B16D14FF0500383F31188BFF36F8F88
:1044D000BFF34F8F3B6100BF124B4FF0FF321A60AA
:1044E000114B01221A60114B00221A6001F074F87E
:1044F0000EE07B69B3F1FF3F0AD14FF0500383F325
:104500001188BFF36F8FBFF34F8FFB6000BFFEE7D3
:1045100000BF1837BD4680BD405D0008494B00080C
:104520003C0D0020380D0020240D00201C0D002023
:1045300080B400AF044B1B680133034A136000BF13
:10454000BD4680BC704700BF400D002080B584B0E0
:1045500000AF0023FB600023BB60424B1B68002BB5
:104560000AD14FF0500383F31188BFF36F8FBFF36D
:104570004F8F3B6000BFFEE701F0A0F8394B1B688E
:10458000013B384A1360374B1B68002B62D1364B16
:104590001B68002B5ED02FE0344BDB68DB68FB60D0
:1045A000FB6818331846FFF7B7F8FB680433184662
:1045B000FFF7B2F8FB68DA6A2D4B1B689A4203D901
:1045C000FB68DB6A2A4A1360FB68DA6A13469B00C1
:1045D00013449B00274A1A44FB68043319461046CB
:1045E000FFF73FF8FB68DA6A234B1B68DB6A9A42E5
:1045F00002D3224B01221A601C4B1B68002BCBD12B
:10460000FB68002B01D000F055FB1D4B1B687B6045
:104610007B68002B10D000F045F80346002B02D039
:10462000164B01221A607B68013B7B607B68002B84
:10463000F1D1134B00221A60104B1B68002B09D0DC
:104640000123BB600F4B4FF080521A60BFF34F8FB6
:10465000BFF36F8F01F062F8BB6818461037BD4694
:1046600080BD00BF400D0020180D0020D80C002098
:10467000200D002048080020440800202C0D0020B8
:10468000280D002004ED00E080B483B000AF044B9F
:104690001B687B607B6818460C37BD4680BC704742
:1046A0001C0D002080B586B000AF00237B61514B0C
:1046B0001B68002B40F08E804F4B1B6801333B6121
:1046C0004D4A3B6913603B69002B20D14B4B1B6863
:1046D0001B68002B0AD04FF0500383F31188BFF3FF
:1046E0006F8FBFF34F8F3B6000BFFEE7434B1B68EC
:1046F000FB60434B1B68414A1360414AFB681360EF
:10470000404B1B6801333F4A136000F0D3FA3E4B25
:104710001B683A699A424ED3384B1B681B68002BC2
:1047200001D1012300E00023002B04D0364B4FF0D1
:10473000FF321A603FE0314B1B68DB68DB68BB600F
:10474000BB685B687B603A697B689A4203D22E4AF9
:104750007B6813602FE0BB6804331846FEF7DCFF6C
:10476000BB689B6A002B04D0BB6818331846FEF761
:10477000D3FFBB68DA6A254B1B689A4203D9BB6832
:10478000DB6A224A1360BB68DA6A13469B00134453
:104790009B001F4A1A44BB68043319461046FEF7B3
:1047A00060FFBB68DA6A1B4B1B68DB6A9A42B3D3B3
:1047B00001237B61B0E7174B1B68DA6A1449134683
:1047C0009B0013449B000B441B68012B07D901235A
:1047D0007B6104E0104B1B6801330F4A13600F4BE1
:1047E0001B68002B01D001237B617B6918461837B9
:1047F000BD4680BD400D00201C0D0020D00C0020C7
:10480000D40C0020300D0020380D0020200D002099
:104810004808002044080020280D00202C0D00200E
:1048200080B485B000AF274B1B68002B03D0264B0C
:1048300001221A6041E0244B00221A60234B1B68BE
:10484000FB6010E0FB68002B0AD14FF0500383F3AC
:104850001188BFF36F8FBFF34F8F7B6000BFFEE700
:10486000FB68013BFB601A49FA6813469B0013443E
:104870009B000B441B68002BE4D0FA6813469B0096
:1048800013449B00124A1344BB60BB685B685A68C0
:10489000BB685A60BB685A68BB6808339A4204D147
:1048A000BB685B685A68BB685A60BB685B68DB685A
:1048B000084A1360054AFB68136000BF1437BD4601
:1048C00080BC7047400D00202C0D0020200D0020E2
:1048D000480800204408002080B584B000AF78600C
:1048E00039607B68002B0AD14FF0500383F31188A5
:1048F000BFF36F8FBFF34F8FFB6000BFFEE7074B27
:104900001B68183319467868FEF7CEFE0121386817
:1049100000F080FA00BF1037BD4680BD440800207B
:1049200080B586B000AFF860B9607A60FB68002B94
:104930000AD14FF0500383F31188BFF36F8FBFF399
:104940004F8F7B6100BFFEE70A4B1B681833194687
:10495000F868FEF786FE7B68002B02D04FF0FF332D
:10496000BB607968B86800F055FA00BF1837BD46DB
:1049700080BD00BF4408002080B586B000AF7860DD
:104980007B68DB68DB683B613B69002B0AD14FF039
:10499000500383F31188BFF36F8FBFF34F8FFB601A
:1049A00000BFFEE73B6918331846FEF7B5FE1E4B05
:1049B0001B68002B1DD13B6904331846FEF7ACFE83
:1049C0003B69DA6A194B1B689A4203D93B69DB6A77
:1049D000164A13603B69DA6A13469B0013449B0036
:1049E000134A1A443B69043319461046FEF739FE50
:1049F00005E03B69183319460E48FEF732FE3B6965
:104A0000DA6A0D4B1B68DB6A9A4205D901237B6188
:104A10000A4B01221A6001E000237B617B69184682
:104A20001837BD4680BD00BF400D0020200D00207E
:104A300048080020D80C0020440800202C0D00203D
:104A400080B483B000AF7860064B1A687B681A6048
:104A5000054B1A687B685A6000BF0C37BD4680BCA6
:104A6000704700BF300D00201C0D002080B588B0BD
:104A700000AF786039607B68002B0AD14FF050039B
:104A800083F31188BFF36F8FBFF34F8F3B6100BF7C
:104A9000FEE73B68002B0AD14FF0500383F31188E7
:104AA000BFF36F8FBFF34F8FFB6000BFFEE700F0D7
:104AB00005FE1D4B1B68BB617B685B68BA69D31A36
:104AC0007B613B681B68B3F1FF3F02D10023FB61B0
:104AD00023E07B681A68154B1B689A4207D07B68F5
:104AE0005B68BA699A4202D30123FB6115E03B6817
:104AF0001B687A699A420BD23B681A687B69D21AA2
:104B00003B681A607868FFF79BFF0023FB6104E0B5
:104B10003B6800221A600123FB6100F0FFFDFB6986
:104B200018462037BD4680BD1C0D0020300D0020EA
:104B300080B400AF034B01221A6000BFBD4680BCA9
:104B4000704700BF2C0D002080B582B000AF7860A8
:104B500000F052F8064B1B68012BF9D9054B4FF0BA
:104B600080521A60BFF34F8FBFF36F8FF0E700BF23
:104B70004808002004ED00E080B582B000AF0023BB
:104B80007B600CE07A6813469B0013449B00124A3A
:104B900013441846FEF73AFD7B6801337B607B685F
:104BA000372BEFD90D48FEF731FD0D48FEF72EFDEE
:104BB0000C48FEF72BFD0C48FEF728FD0B48FEF7CE
:104BC00025FD0B4B054A1A600A4B054A1A6000BFC7
:104BD0000837BD4680BD00BF48080020A80C002053
:104BE000BC0C0020D80C0020EC0C0020040D002090
:104BF000D00C0020D40C002080B582B000AF19E0AA
:104C000000F05CFD104BDB68DB687B607B68043385
:104C10001846FEF781FD0D4B1B68013B0B4A1360E4
:104C20000B4B1B68013B0A4A136000F077FD786864
:104C300000F010F8064B1B68002BE1D100BF00BF4D
:104C40000837BD4680BD00BFEC0C0020180D0020C9
:104C5000000D002080B584B000AF78607B6893F8C9
:104C60005930002B08D17B681B6B184600F0EAFE18
:104C7000786800F0E7FE18E07B6893F85930012B64
:104C800003D1786800F0DEFE0FE07B6893F85930BE
:104C9000022B0AD04FF0500383F31188BFF36F8FBC
:104CA000BFF34F8FFB6000BFFEE700BF1037BD466C
:104CB00080BD000080B483B000AF0E4B1B681B6842
:104CC000002B01D1012300E00023002B04D00A4B6C
:104CD0004FF0FF321A6008E0064B1B68DB68DB68A8
:104CE0007B607B685B68044A136000BF0C37BD467D
:104CF00080BC7047D00C0020380D002080B483B0F9
:104D000000AF0B4B1B68002B02D101237B6008E036
:104D1000084B1B68002B02D102237B6001E00023BB
:104D20007B607B6818460C37BD4680BC704700BF6F
:104D3000240D0020400D002080B586B000AF7860C3
:104D40007B683B6100237B617B68002B56D02E4B38
:104D50001B683A699A420AD04FF0500383F31188D6
:104D6000BFF36F8FBFF34F8FFB6000BFFEE73B6960
:104D70001B6D002B0AD14FF0500383F31188BFF352
:104D80006F8FBFF34F8FBB6000BFFEE73B691B6DAA
:104D90005A1E3B691A653B69DA6A3B69DB6C9A42C9
:104DA0002CD03B691B6D002B28D13B69043318467E
:104DB000FEF7B2FC3B69DA6C3B69DA623B69DB6A9D
:104DC000C3F138023B699A613B69DA6A0F4B1B6891
:104DD0009A4203D93B69DB6A0C4A13603B69DA6A81
:104DE00013469B0013449B00094A1A443B69043351
:104DF00019461046FEF735FC01237B617B69184696
:104E00001837BD4680BD00BF44080020200D00209B
:104E10004808002080B584B000AF78603960214B2D
:104E20001B68FB60204B1B6804331846FEF774FCBC
:104E30007B68B3F1FF3F0AD13B68002B07D01A4BC8
:104E40001B68043319461948FEF70BFC26E0FA6884
:104E50007B681344BB60144B1B68BA685A60BA681D
:104E6000FB689A4209D2124B1A680F4B1B68043335
:104E700019461046FEF718FC10E00E4B1A680A4B54
:104E80001B68043319461046FEF70EFC0A4B1B68DC
:104E9000BA689A4202D2084ABB68136000BF103752
:104EA000BD4680BD1C0D002044080020040D0020DC
:104EB000D40C0020D00C0020380D002080B58AB022
:104EC00004AF00237B6100F0CBFA1C4B1B68002B66
:104ED00021D00023FB600023BB603A1D07F10801CD
:104EE00007F10C031846FEF777FB7968BB68FA6890
:104EF000029201930223009300230A4610491148AD
:104F0000FFF718F90346104A13600F4B1B68002B7C
:104F100001D001237B617B69002B0AD14FF0500344
:104F200083F31188BFF36F8FBFF34F8F3B6100BFD7
:104F3000FEE77B6918461837BD4680BD740D00201A
:104F4000485D000869500008780D002080B58AB0DF
:104F500000AFF860B9607A603B6000237B62FB6859
:104F6000002B0AD14FF0500383F31188BFF36F8FEA
:104F7000BFF34F8F3B6200BFFEE71A4B1B68002B4D
:104F80002AD0BB683B617B687B61FB68BB61BB6807
:104F9000052B18DCFFF7B2FE0346022B09D1114B9B
:104FA000186807F1100100233A6BFEF7E1FC786204
:104FB00012E00C4B186807F1100100230022FEF7E5
:104FC000D7FC786208E0074B186807F1100100234E
:104FD0003A68FEF7CBFD78627B6A18462837BD46F3
:104FE00080BD00BF740D002080B588B002AF78602E
:104FF00039601C4B1B68DB68DB687B617B690433B1
:105000001846FEF789FB7B69DB69012B22D17B699E
:105010009A697B68D1187B683A68786900F0C8F8AB
:105020000346002B16D00023009300237A6800214A
:105030007869FFF78BFF38613B69002B0AD14FF08D
:10504000500383F31188BFF36F8FBFF34F8FFB6063
:1050500000BFFEE77B695B6A7869984700BF183735
:10506000BD4680BD6C0D002080B584B000AF786077
:1050700007F10803184600F057F8F860BB681946B6
:10508000F86800F003F800F0D5F8F1E780B584B0D7
:1050900000AF78603960FFF74BFA07F10803184654
:1050A00000F066F8F860BB68002B30D13B68002B3D
:1050B0000AD17A68FB689A4206D8FFF747FAF9687E
:1050C0007868FFF791FF24E03B68002B08D0134B72
:1050D0001B681B68002B0CBF01230023DBB23B6065
:1050E0000F4B18687A68FB68D31A3A681946FEF7BE
:1050F000EDFFFFF72BFA0346002B0AD1094B4FF0C7
:1051000080521A60BFF34F8FBFF36F8F01E0FFF73C
:105110001DFA00BF1037BD4680BD00BF700D0020D6
:10512000740D002004ED00E080B485B000AF78601D
:105130000E4B1B681B68002B0CBF01230023DBB246
:105140001A467B681A607B681B68002B05D1074BE9
:105150001B68DB681B68FB6001E00023FB60FB68E9
:1051600018461437BD4680BC704700BF6C0D002048
:1051700080B584B000AF7860FFF786FAF8600B4B1B
:105180001B68FA689A4205D200F008F97B68012290
:105190001A6002E07B6800221A60044AFB68136010
:1051A000FB6818461037BD4680BD00BF7C0D00204F
:1051B00080B586B000AFF860B9607A603B600023CC
:1051C0007B61FB68BA685A60FB68FA681A61BA6862
:1051D0007B689A4212D87A683B68D21AFB689B694E
:1051E0009A4202D301237B611BE0104B1A68FB68D3
:1051F000043319461046FEF757FA12E07A683B6806
:105200009A4206D2BA683B689A4202D301237B6174
:1052100007E0074B1A68FB68043319461046FEF78F
:1052200043FA7B6918461837BD4680BD700D0020D3
:105230006C0D002080B58EB002AF9DE07B68002B26
:1052400018DA3B1D0433FB62FB6A002B0AD14FF0D6
:10525000500383F31188BFF36F8FBFF34F8FFB6150
:1052600000BFFEE7FB6A1B68FA6A5068FA6A926838
:10527000114698477B68002B7DDBFB68BB62BB6AED
:105280005B69002B04D0BB6A04331846FEF744FA6E
:105290003B461846FFF76CFF78627B68092B6BD89A
:1052A00001A252F823F000BFD1520008D1520008E9
:1052B000D1520008795300082D53000865530008A7
:1052C000D1520008D1520008795300082D5300082C
:1052D000BA68BB6A9B69D118BB687A6AB86AFFF77B
:1052E00067FF0346002B47D0BB6A5B6AB86A9847E2
:1052F000BB6ADB69012B3FD1BA68BB6A9B691A4460
:105300000023009300230021B86AFFF71FFE3862D4
:105310003B6A002B30D14FF0500383F31188BFF369
:105320006F8FBFF34F8FBB6100BFFEE7BA68BB6AE8
:105330009A61BB6A9B69002B0AD14FF0500383F33B
:105340001188BFF36F8FBFF34F8F7B6100BFFEE704
:10535000BB6A9A697B6AD1187B6A7A6AB86AFFF776
:1053600027FF09E0BB6A93F82C30002B04D1B86A00
:1053700000F068FB00E000BF074B1B68391D0022EE
:105380001846FEF78BFC0346002B7FF457AF00BF97
:1053900000BF3037BD4680BD740D002080B588B099
:1053A00002AF45E02C4B1B68DB681B683B612A4B56
:1053B0001B68DB68DB68FB60FB6804331846FEF79C
:1053C000ABF9FB685B6AF8689847FB68DB69012BFF
:1053D0002ED1FB689B693A691344BB60BA683B698C
:1053E0009A420ED9FB68BA685A60FB68FA681A617B
:1053F000194B1A68FB68043319461046FEF754F936
:1054000016E00023009300233A690021F868FFF7B3
:105410009DFD78607B68002B0AD14FF0500383F329
:105420001188BFF36F8FBFF34F8F3B6000BFFEE764
:10543000094B1B681B68002BB4D1074B1B687B61B1
:10544000064B1B68044A1360044A7B69136000BF63
:105450001837BD4680BD00BF6C0D0020700D0020C8
:1054600080B582B002AF00F029F9154B1B68002B04
:1054700020D11448FEF7CAF81348FEF7C7F8134BBB
:10548000104A1A60124B104A1A6000230093114B05
:10549000114A10210A20FEF7D1F90346084A136089
:1054A000074B1B68002B05D0054B1B680B491846A2
:1054B000FEF7E4FD00F032F900BFBD4680BD00BF3D
:1054C000740D0020440D0020580D00206C0D0020AC
:1054D000700D0020200E0020800D0020505D00087F
:1054E00080B485B000AFF860B9607A60FB68043BB7
:1054F000FB60FB684FF080721A60FB68043BFB6046
:10550000BB6823F00102FB681A60FB68043BFB6088
:10551000084AFB681A60FB68143BFB607A68FB680A
:105520001A60FB68203BFB60FB6818461437BD46D9
:1055300080BC70473955000880B485B000AF0023A7
:105540007B60124B1B68B3F1FF3F0AD04FF0500352
:1055500083F31188BFF36F8FBFF34F8FFB6000BFE2
:10556000FEE74FF0500383F31188BFF36F8FBFF353
:105570004F8FBB6000BF00BF7B68002BFCD000BF1B
:1055800000BF1437BD4680BC704700BF0C00002030
:10559000074B19680868B0E8F00F80F30988BFF37B
:1055A0006F8F4FF0000080F311884EF00D0E7047A2
:1055B0004408002000BF00BF06480068006880F370
:1055C000088862B661B6BFF34F8FBFF36F8F00DFFD
:1055D00000BF00BF08ED00E080B584B000AF324BE3
:1055E000FB60FB681B78DBB27B60FB68FF221A70F4
:1055F000FB681B78DBB2FB70FB78DBB203F0500377
:10560000DAB22A4B1A702A4B07221A6009E0284B9B
:105610001B68013B264A1360FB78DBB25B00DBB200
:10562000FB70FB78DBB203F08003802BEFD0204BC4
:105630001B68C3F10703042B0AD04FF0500383F318
:105640001188BFF36F8FBFF34F8FBB6000BFFEE7C2
:10565000174B1B681B02164A1360154B1B6803F49B
:10566000E063134A13607B68DAB2FB681A70114B6F
:105670001B68104A43F4700313600E4B1B680D4AFD
:1056800043F07043136000F0B9F80B4B00221A602E
:10569000FFF792FFFFF7C4F8FFF74EFF002318460D
:1056A0001037BD4680BD00BF00E400E0700E002052
:1056B000740E002020ED00E00C00002080B483B0C8
:1056C00000AF4FF0500383F31188BFF36F8FBFF328
:1056D0004F8F7B6000BF0F4B1B6801330D4A136077
:1056E0000C4B1B68012B0FD10B4B1B68DBB2002B43
:1056F0000AD04FF0500383F31188BFF36F8FBFF3CD
:105700004F8F3B6000BFFEE700BF0C37BD4680BC3B
:10571000704700BF0C00002004ED00E080B483B0AF
:1057200000AF114B1B68002B0AD14FF0500383F3DD
:105730001188BFF36F8FBFF34F8F7B6000BFFEE711
:10574000094B1B68013B084A1360074B1B68002B81
:1057500005D100233B603B6883F3118800BF00BF85
:105760000C37BD4680BC70470C00002000000000D4
:10577000EFF30980BFF36F8F0D4B1A6820E9F00F2C
:1057800010602DE908404FF0500080F31188FFF7BA
:1057900047F84FF0000080F31188BDE80840196811
:1057A0000868B0E8F00F80F30988BFF36F8F704787
:1057B0004408002000BF00BF80B582B000AF4FF0AA
:1057C000500383F31188BFF36F8FBFF34F8F7B605C
:1057D00000BFFEF767FF0346002B03D0064B4FF0D8
:1057E00080521A6000233B603B6883F3118800BF3E
:1057F00000BF0837BD4680BD04ED00E080B400AFB7
:105800000A4B00221A600A4B00221A60094B1B68DF
:10581000094AA2FB03239B09084A013B1360034B7F
:1058200007221A6000BFBD4680BC704710E000E050
:1058300018E000E000000020D34D621014E000E00A
:1058400080B485B000AFEFF30583FB60FB680F2BDE
:1058500014D9164AFB6813441B78FB72144B1B784F
:10586000FA7A9A420AD24FF0500383F31188BFF3B9
:105870006F8FBFF34F8F7B6000BFFEE70D4B1B6840
:1058800003F4E0620C4B1B689A420AD94FF05003B4
:1058900083F31188BFF36F8FBFF34F8F3B6000BF5F
:1058A000FEE700BF1437BD4680BC7047F0E300E060
:1058B000700E00200CED00E0740E002080B58AB060
:1058C00000AF78600023FB61FEF732FE584B1B6887
:1058D000002B01D100F010F9564B1A687B68134079
:1058E000002B40F08E807B68002B1DD008227B6847
:1058F00013447B607B6803F00703002B14D07B68A4
:1059000023F0070308337B607B6803F00703002B59
:105910000AD04FF0500383F31188BFF36F8FBFF3AA
:105920004F8F7B6100BFFEE77B68002B69D0424B45
:105930001B687A689A4264D8404B3B623F4B1B68B5
:105940007B6204E07B6A3B627B6A1B687B627B6AEA
:105950005B687A689A4203D97B6A1B68002BF1D195
:10596000334B1B687A6A9A424BD03B6A1B68082209
:105970001344FB617B6A1A683B6A1A607B6A5A6847
:105980007B68D21A08235B009A421FD97A6A7B6827
:105990001344BB61BB6903F00703002B0AD04FF02F
:1059A000500383F31188BFF36F8FBFF34F8F3B61B9
:1059B00000BFFEE77B6A5A687B68D21ABB695A60EF
:1059C0007B6A7A685A60B86900F0F8F81A4B1A686E
:1059D0007B6A5B68D31A184A1360174B1A68184B16
:1059E0001B689A4203D2144B1B68154A13607B6AEA
:1059F0005A68104B1B681A437B6A5A607B6A002204
:105A00001A60FEF7A3FDFB6903F00703002B0AD021
:105A10004FF0500383F31188BFF36F8FBFF34F8FA5
:105A2000FB6000BFFEE7FB6918462837BD4680BD16
:105A3000801A00208C1A0020841A0020781A002076
:105A4000881A002080B586B000AF78607B687B61E3
:105A50007B68002B48D008235B427A6913447B6142
:105A60007B693B613B695A68214B1B681340002BE3
:105A70000AD14FF0500383F31188BFF36F8FBFF348
:105A80004F8FFB6000BFFEE73B691B68002B0AD00D
:105A90004FF0500383F31188BFF36F8FBFF34F8F25
:105AA000BB6000BFFEE73B695A68114B1B6813409F
:105AB000002B19D03B691B68002B15D13B695A6834
:105AC0000B4B1B68DB431A403B695A60FEF730FD05
:105AD0003B695A68074B1B681344064A13603869D0
