:020000040800F2
:1000000000280020A51200080D1200081312000895
:10001000191200081F120008251200080000000035
:100020000000000000000000000000002B1200088B
:100030003712000800000000431200084F120008A9
:10004000ED120008ED120008ED120008ED12000894
:10005000ED120008ED120008ED120008ED12000884
:10006000ED120008ED120008ED1200085D12000804
:1000700071120008ED120008ED120008ED120008E0
:10008000ED120008ED120008ED120008ED12000854
:1000900085120008ED120008ED120008ED120008AC
:1000A000ED120008ED120008ED120008ED12000834
:1000B000ED120008ED12000800000000ED1200082B
:1000C000ED1200080000000000000000ED12000822
:1000D00000000000ED120008ED1200080000000012
:1000E000ED120008ED120008ED12000800000000FB
:1000F0000000000000000000000000000000000000
:0C01000000000000000000005FF808F1A3
:10010C0010B5054C237833B9044B13B10448AFF345
:10011C0000800123237010BD0C00002000000000A3
:10012C009047000808B5034B1BB103490348AFF3D4
:10013C00008008BD0000000010000020904700085F
:10014C0080B582B000AF78600821054803F086FCCA
:10015C00044B01221A6000BF0837BD4680BD00BFAA
:10016C00C80000202003002080B485B000AFF860E8
:10017C00B9607A603B60FB68D9B2104AFB6802F840
:10018C0023107B68D9B20D4AFB689B0013440A46C6
:10019C005A70BB68D9B2094AFB689B0013440A46E3
:1001AC009A703B68D9B2054AFB689B0013440A4617
:1001BC00DA7000BF1437BD4680BC7047F8010020D0
:1001CC0080B483B000AF786000BF0C37BD4680BCF4
:1001DC007047000080B586B000AF00237B61002320
:1001EC003B6136E02E4A3B699B0013445B781A0452
:1001FC002B493B699B000B449B781B021A432849F3
:10020C003B699B000B44DB7813437B601723FB603B
:10021C0019E00122FB6802FA03F31A467B681340CB
:10022C00002B05D01F4A7B693C2122F8131004E0F7
:10023C001C4A7B691E2122F813107B6901337B61F8
:10024C00FB68013BFB60FB68002BE2DA3B69013386
:10025C003B613B69492BC5DD0023BB600AE0114AB9
:10026C007B69002122F813107B6901337B61BB6829
:10027C000133BB60BB68312BF1DD7B699BB2094A52
:10028C000821094803F056FA00BF084B1B68002BE5
:10029C00FBD0064B00221A6000BF1837BD4680BD4C
:1002AC00F801002024030020C800002020030020B7
:1002BC0080B483B000AF00237B601AE07B68D9B2B6
:1002CC00104A7B6802F823100E4A7B689B0013448B
:1002DC0000225A700B4A7B689B00134400229A70D0
:1002EC00084A7B689B0013440022DA707B68013358
:1002FC007B607B68492BE1DD00BF00BF0C37BD463E
:10030C0080BC7047F801002080B582B000AF3B2361
:10031C007B600DE000233222FA217868FFF724FF7E
:10032C00FFF758FF142001F03FF87B6801337B6026
:10033C007B68492BEEDD00BF00BF0837BD4680BD92
:10034C0080B582B000AF0E237B6008E00023002252
:10035C00FA217868FFF708FF7B6801337B607B68C4
:10036C003A2BF3DDFFF736FF642001F01DF800BFD8
:10037C000837BD4680BD80B582B000AF0E237B60D0
:10038C001EE000233222FA217868FFF7EDFE0E23DF
:10039C003B600AE03A687B689A4203D07B68013381
:1003AC003A689A423B68013B3B603B68002BF1DAB0
:1003BC00FFF710FF142000F0F7FF7B68013B7B6018
:1003CC007B68002BDDDA00BF00BF0837BD4680BD5F
:1003DC0080B582B000AF0F237B6008E000230022C1
:1003EC00FA217868FFF7C0FE7B6801337B607B687D
:1003FC003A2BF3DD0E233B600DE000237822FA212B
:10040C003868FFF7B1FEFFF7E5FE192000F0CCFFCE
:10041C003B68013B3B603B68002BEEDA00BF00BF42
:10042C000837BD4680BD80B582B000AF0F237B601E
:10043C0008E000230022FA217868FFF795FE7B681C
:10044C0001337B607B683A2BF3DD3B233B600DE093
:10045C0000237822FA213868FFF786FEFFF7BAFEF0
:10046C00192000F0A1FF3B6801333B603B68492B2E
:10047C00EEDD00BF00BF0837BD4680BD80B588B03B
:10048C0000AF0023FB613B23BB6102237B610F2385
:10049C003B6108E000230022FA213869FFF764FE73
:1004AC003B6901333B613B693A2BF3DD0E23FB6067
:1004BC0057E000233222FA21F868FFF755FE0E238D
:1004CC00BB6016E0BA68FB689A420FD0FB68013338
:1004DC00BA689A420AD0FB680233BA689A4205D0CD
:1004EC00002300220021B868FFF73EFEBB68013BE9
:1004FC00BB60BB68002BE5DAFB689A007B69134490
:10050C0001337B6000233222FA217868FFF72CFE3E
:10051C00FB690133FB617B6905337B61FB69032B51
:10052C0008DD002300220021B869FFF71DFEBB691E
:10053C000133BB61FB68002B05D100233222FA2169
:10054C004920FFF711FEFFF745FE00230022002192
:10055C000020FFF709FE0F2000F026FFFB68013B8F
:10056C00FB60FB68002BA4DA00BF00BF2037BD4640
:10057C0080BD80B586B000AF00237B613B233B611F
:10058C000223FB600E23BB6057E000233222FA21CA
:10059C00B868FFF7E9FD0E237B6016E07A68BB684C
:1005AC009A420FD0BB6801337A689A420AD0BB6872
:1005BC0002337A689A4205D0002300220021786821
:1005CC00FFF7D2FD7B68013B7B607B68002BE5DA93
:1005DC00BB689A00FB68134401333B600023322252
:1005EC00FA213868FFF7C0FD7B6901337B61FB683A
:1005FC000533FB607B69032B08DD002300220021FF
:10060C003869FFF7B1FD3B6901333B61BB68002BD7
:10061C0005D100233222FA214920FFF7A5FDFFF76F
:10062C00D9FD0023002200210020FFF79DFD14209E
:10063C0000F0BAFEBB68013BBB60BB68002BA4DAC0
:10064C0000BF00BF1837BD4680BD000080B586B026
:10065C0000AF00237B6125233B610123FB60242336
:10066C00BB6047E000230022FA21B868FFF77CFD4D
:10067C0024237B6016E07A68BB689A420FD0BB6873
:10068C0001337A689A420AD0BB6802337A689A427C
:10069C0005D00023002200217868FFF765FD7B68F8
:1006AC00013B7B60204B1B6801337A689A42E2DC89
:1006BC00BA68FB68D01800230022FA21FFF754FD1A
:1006CC00FB680233FB607B6901337B617B69032B25
:1006DC0008DD0023002200213869FFF745FD3B6946
:1006EC0001333B61FFF776FD052000F05DFEBB6832
:1006FC00013BBB600C4B1B68BA689A42B2DA002310
:10070C007B6125233B610123FB60074B1B68023394
:10071C00054A1360044B1B68242B00DC9FE700BFC9
:10072C0000BF1837BD4680BD6811002080B582B06F
:10073C0000AFFA237B6000233B6008E0002300221B
:10074C0079683868FFF710FD3B6801333B603B6804
:10075C004A2BF3DD0F2000F027FEFFF73BFD7B68F3
:10076C00013B7B607B68002BE5D1FFF7A1FDFFF718
:10077C0031FDC82000F018FE00BF00BF0837BD4691
:10078C0080BD80B500AFFFF793FDFFF723FD00BFE1
:10079C0080BD000080B485B000AF0346FB71002320
:1007AC00FB600CE0FB7903F001020949FB6841F89E
:1007BC002320FB795B08FB71FB680133FB60FB6852
:1007CC00072BEFDD00BF00BF1437BD4680BC704760
:1007DC006C11002080B500AF00F084FD00F0F6F83D
:1007EC0000F0FEFA00F0D6FA00F0C0F900F05EFA64
:1007FC0000F048F900F084F96E4801F0CEF96E4B28
:10080C0001221A616C4B00229A606B4B0022DA6059
:10081C00694B13221A60694B01221A62674B002242
:10082C005A61664B00221A61644B4FF400721A60D5
:10083C00624B4FF400725A60604B4FF4FF529A6057
:10084C005E4B4FF4FF52DA605C4B00229A615B4BBB
:10085C000122DA615949574801F0D6F8FFF728FD13
:10086C00FFF7B8FC2D20FFF7ABFCFFF7EFFEFFF70F
:10087C005DFFFFF71DFDFFF7ADFCC82000F094FDF8
:10088C004F4B504A00214B4801F0CBF94D4B1B68A4
:10089C00122BF5D14A4B1B78002B04D1FFF708FD26
:1008AC00FFF798FC84E0464B1B781846FFF772FF65
:1008BC00454B1B68002B0BD0434B5B68002B07D0C0
:1008CC00414B9B68002B03D03F4BDB68002B2BD19B
:1008DC003D4B1B68002B07D03B4B5B68002B03D0B8
:1008EC00394B9B68002B1FD1374B1B68002B07D053
:1008FC00354B5B68002B03D0334BDB68002B13D1DB
:10090C00314B1B68002B03D02F4B5B68002B0BD19A
:10091C002D4B1B68002B0CD02B4B9B68002B08D04D
:10092C00294BDB68002B04D0FFF7A8FDFFF729FF4C
:10093C003EE0254B1B68002B08D0234B9B68002BFB
:10094C0004D0FFF745FDFFF71CFF31E01E4B1B6881
:10095C00002B08D01C4BDB68002B04D0FFF763FD89
:10096C00FFF70FFF24E0184B1B68002B04D0FFF798
:10097C00E7FCFFF706FF1BE0134B9B68002B04D032
:10098C00FFF7F9FCFFF7FDFE12E00F4BDB68002BC5
:10099C0004D0FFF7B9FCFFF7F4FE09E00A4B5B68E3
:1009AC00002B3FF46DAFFFF7E4FDFFF7EAFE00BF4D
:1009BC0066E700BF5800002098010020CC01002001
:1009CC00F4010020B00100206C11002080B594B01F
:1009DC0000AF07F1280328220021184603F0CAFEB5
:1009EC0007F1140300221A605A609A60DA601A61E7
:1009FC003B1D00221A605A609A60DA600123BB62C8
:100A0C004FF48033FB6200233B630123BB6302235F
:100A1C007B644FF48033BB644FF4E013FB6407F149
:100A2C002803184602F040F90346002B01D000F0D1
:100A3C002FFA0F237B610223BB610023FB614FF470
:100A4C0080633B6200237B6207F11403022118468A
:100A5C0002F0ACFB0346002B01D000F019FA022384
:100A6C007B604FF40043FB603B1D184602F004FD15
:100A7C000346002B01D000F00BFA00BF5037BD46E7
:100A8C0080BD000080B584B000AF3B1D00221A6011
:100A9C005A609A60184B194A1A60174B00229A60D8
:100AAC00154B01221A73144B00221A75124B4FF47A
:100ABC006022DA61104B00225A600F4B01221A613E
:100ACC000D4800F095FC0346002B01D000F0E0F936
:100ADC0007237B600123BB600223FB603B1D19468F
:100AEC00054800F05DFD0346002B01D000F0D0F965
:100AFC0000BF1037BD4680BD2800002000240140F7
:100B0C0080B500AF174B184A1A60164B04225A6076
:100B1C00144B00229A60134B0022DA60114B4FF4F5
:100B2C0060221A610F4B4FF480125A610D4B002258
:100B3C001A760C4B00225A760A4B00229A76094BF5
:100B4C000022DA76074B00221A77064B00225A77DE
:100B5C00044800F05EFE0346002B01D000F098F92B
:100B6C0000BF80BD580000200064004080B596B0E6
:100B7C0000AF07F1480300221A605A609A60DA60ED
:100B8C0007F1400300221A605A6007F12403002287
:100B9C001A605A609A60DA601A615A619A613B1D58
:100BAC0020220021184603F0E5FD3E4B3E4A1A6018
:100BBC003C4B00225A603B4B00229A60394B472237
:100BCC00DA60384B00221A61364B00225A61354BE1
:100BDC0000229A61334802F005FD0346002B01D038
:100BEC0000F056F94FF48053BB6407F148031946E3
:100BFC002C4803F0AFF80346002B01D000F048F965
:100C0C00284802F03EFD0346002B01D000F040F9CD
:100C1C0000233B6400237B6407F140031946214801
:100C2C0003F0DAFC0346002B01D000F031F960230D
:100C3C007B620023BB620023FB6200233B63002327
:100C4C007B630023BB630023FB6307F124030022B7
:100C5C001946144802F0C0FF0346002B01D000F0E7
:100C6C0017F900237B600023BB600023FB6000238B
:100C7C003B6100237B614FF40053BB6100233B625B
:100C8C003B1D1946074803F0FFFC0346002B01D01F
:100C9C0000F0FEF8034800F04BFA00BF5837BD4691
:100CAC0080BD00BF80000020002C014080B58EB0BC
:100CBC0000AF07F1280300221A605A609A60DA60CC
:100CCC0007F1200300221A605A603B1D00221A60B3
:100CDC005A609A60DA601A615A619A612C4B4FF033
:100CEC0080421A602A4B00225A60294B00229A60DB
:100CFC00274B4722DA60264B00221A61244B002234
:100D0C009A61234802F06EFC0346002B01D000F0E0
:100D1C00BFF84FF48053BB6207F1280319461C48F7
:100D2C0003F018F80346002B01D000F0B1F8184876
:100D3C0002F0A7FC0346002B01D000F0A9F8002319
:100D4C003B6200237B6207F120031946104803F035
:100D5C0043FC0346002B01D000F09AF860237B6023
:100D6C000023BB600023FB6000237B613B1D08223A
:100D7C001946074802F030FF0346002B01D000F063
:100D8C0087F8034800F0D4F900BF3837BD4680BD62
:100D9C00C800002080B582B000AF104B5B690F4AD1
:100DAC0043F0010353610D4B5B6903F001037B605E
:100DBC007B68002200210B2001F047FB0B2001F087
:100DCC0060FB002200210C2001F03FFB0C2001F005
:100DDC0058FB00BF0837BD4680BD00BF0010024065
:100DEC0080B588B000AF07F1100300221A605A607A
:100DFC009A60DA60244B9B69234A43F01003936199
:100E0C00214B9B6903F01003FB60FB681E4B9B6935
:100E1C001D4A43F0200393611B4B9B6903F0200395
:100E2C00BB60BB68184B9B69174A43F00403936182
:100E3C00154B9B6903F004037B607B68124B9B6929
:100E4C00114A43F0080393610F4B9B6903F00803AD
:100E5C003B603B6800224FF400510C4801F00CFF42
:100E6C004FF400533B6101237B610023BB610223E0
:100E7C00FB6107F110031946044801F081FD00BF26
:100E8C002037BD4680BD00BF00100240001001405D
:100E9C0080B400AF72B600BFFEE7000080B485B02E
:100EAC0000AF154B9B69144A43F001039361124B3D
:100EBC009B6903F00103BB60BB680F4BDB690E4AF7
:100ECC0043F08053D3610C4BDB6903F080537B60A0
:100EDC007B680A4B5B68FB60FB6823F0E063FB609C
:100EEC00FB6843F00073FB60044AFB68536000BF6F
:100EFC001437BD4680BC7047001002400000014012
:100F0C0080B588B000AF786007F1100300221A603A
:100F1C005A609A60DA607B681B68144A934221D14C
:100F2C00134B9B69124A43F400739361104B9B69FA
:100F3C0003F40073FB60FB680D4B9B690C4A43F098
:100F4C00040393610A4B9B6903F00403BB60BB6809
:100F5C0080233B6103237B6107F11003194605488D
:100F6C0001F00EFD00BF2037BD4680BD00240140BE
:100F7C00001002400008014080B588B000AF7860D6
:100F8C0007F1100300221A605A609A60DA607B68DD
:100F9C001B68204A934239D11F4BDB691E4A43F030
:100FAC000073D3611C4BDB6903F00073FB60FB68BF
:100FBC00194B9B69184A43F004039361164B9B69C8
:100FCC0003F00403BB60BB684FF400633B61002378
:100FDC007B610023BB6107F1100319460F4801F038
:100FEC00CFFC4FF480533B6102237B610323FB61F5
:100FFC0007F110031946094801F0C2FC0022002138
:10100C00142001F022FA142001F03BFA00BF203723
:10101C00BD4680BD00640040001002400008014045
:10102C0080B584B000AF78607B681B683A4A934205
:10103C0034D13A4B9B69394A43F400639361374B83
:10104C009B6903F40063FB60FB68354B354A1A60FF
:10105C00334B10225A60324B00229A60304B802264
:10106C00DA602F4B4FF480721A612D4B4FF4806273
:10107C005A612B4B00229A61294B0022DA612848D5
:10108C0001F01AFA0346002B01D0FFF701FF7B6831
:10109C00234A5A62224A7B68536238E07B681B6899
:1010AC00B3F1804F33D11D4BDB691C4A43F0010374
:1010BC00D3611A4BDB6903F00103BB60BB681A4BAD
:1010CC001A4A1A60184B10225A60174B00229A6069
:1010DC00154B8022DA60144B4FF480721A61124B5C
:1010EC004FF480625A61104B00229A610E4B002221
:1010FC00DA610D4801F0E0F90346002B01D0FFF74F
:10110C00C7FE7B68084ADA62074A7B68536200BFF5
:10111C001037BD4680BD00BF002C014000100240BE
:10112C00100100201C000240540100200800024065
:10113C0080B58AB000AF786007F1140300221A6002
:10114C005A609A60DA607B681B68284A934219D10E
:10115C00274B9B69264A43F004039361244B9B69FC
:10116C0003F004033B613B694FF480737B61022302
:10117C00BB6102233B6207F1140319461D4801F0C1
:10118C00FFFB2FE07B681B68B3F1804F2AD1184B13
:10119C009B69174A43F008039361154B9B6903F055
:1011AC000803FB60FB684FF480637B610223BB6127
:1011BC0002233B6207F1140319460F4801F0E0FBD0
:1011CC000E4B5B687B627B6A23F440737B627B6AA9
:1011DC0043F0E0637B627B6A43F400737B62074AF3
:1011EC007B6A536000BF2837BD4680BD002C014090
:1011FC000010024000080140000C014000000140BA
:10120C0080B400AFFEE780B400AFFEE780B400AF5F
:10121C00FEE780B400AFFEE780B400AFFEE780B419
:10122C0000AF00BFBD4680BC704780B400AF00BFAC
:10123C00BD4680BC704780B400AF00BFBD4680BCCB
:10124C00704780B500AF00F093F800BF80BD000080
:10125C0080B500AF024801F05FFA00BF80BD00BF4F
:10126C005401002080B500AF024801F055FA00BFD0
:10127C0080BD00BF1001002080B500AF024800F017
:10128C00E1FD00BF80BD00BF5800002080B400AF5E
:10129C0000BFBD4680BC70470C480D490D4A002369
:1012AC0002E0D458C4500433C4188C42F9D30A4A0F
:1012BC000A4C002301E013600432A242FBD3FFF777
:1012CC00E5FF03F033FAFFF785FA704700000020C2
:1012DC000C000020D04700080C00002090110020CA
:1012EC00FEE7000080B500AF084B1B68074A43F0CF
:1012FC0010031360032001F09DF80F2000F008F894
:10130C00FFF7CCFD0023184680BD00BF0020024033
:10131C0080B582B000AF7860124B1A68124B1B7804
:10132C0019464FF47A73B3FBF1F3B2FBF3F318469F
:10133C0001F0B5F80346002B01D001230EE07B68C9
:10134C000F2B0AD8002279684FF0FF3001F07DF89E
:10135C00064A7B681360002300E001231846083717
:10136C00BD4680BD000000200800002004000020C5
:10137C0080B400AF054B1B781A46054B1B68134411
:10138C00034A136000BFBD4680BC704708000020B4
:10139C008C11002080B400AF024B1B681846BD4670
:1013AC0080BC70478C11002080B584B000AF786091
:1013BC00FFF7F0FFB8607B68FB60FB68B3F1FF3FA1
:1013CC0005D00A4B1B781A46FB681344FB6000BF20
:1013DC00FFF7E0FF0246BB68D31AFA689A42F7D8C7
:1013EC0000BF00BF1037BD4680BD00BF0800002005
:1013FC0080B586B000AF78600023FB7500233B619D
:10140C000023BB600023FB607B68002B01D1012310
:10141C00BEE07B689B68002B7B689B6A002B09D124
:10142C007B680022DA627B68002283F824207868CB
:10143C00FFF766FD786800F0ABF90346FB757B6837
:10144C009B6A03F01003002B40F09980FB7D002B6E
:10145C0040F095807B689B6A23F4885323F0020349
:10146C0043F002027B689A627B685A687B68DB698E
:10147C001A437B681B7B5B001343BA681343BB6046
:10148C007B689B68B3F5807F03D07B689B68012BDE
:10149C0002D14FF4807300E000233A6913433B619F
:1014AC007B681B7D012B19D17B681B7B002B09D121
:1014BC007B689B69013B5A033B69134343F400630C
:1014CC003B610BE07B689B6A43F020027B689A626D
:1014DC007B68DB6A43F001027B68DA627B681B681D
:1014EC005B6823F469417B681B683A690A435A605C
:1014FC007B681B689A68284B13407A681268B96835
:10150C000B4393607B689B68B3F5807F03D07B684B
:10151C009B68012B04D17B681B69013B1B05FB609D
:10152C007B681B68DB6A23F470017B681B68FA68B4
:10153C000A43DA627B681B689A68184B1340BA68D6
:10154C009A420BD17B680022DA627B689B6A23F09B
:10155C00030343F001027B689A6218E07B689B6A84
:10156C0023F0120343F010027B689A627B68DB6AFB
:10157C0043F001027B68DA620123FB7507E07B68AC
:10158C009B6A43F010027B689A620123FB75FB7D1A
:10159C0018461837BD4680BDFDF7E1FFFE0E1FFF54
:1015AC0080B485B000AF786039600023FB730023F2
:1015BC00BB607B6893F82430012B01D10223DCE063
:1015CC007B68012283F824203B685B68062B1CD8BF
:1015DC007B681B68596B3B685A6813469B00134425
:1015EC00053B1F2202FA03F3DB4319403B681868E2
:1015FC003B685A6813469B001344053B00FA03F200
:10160C007B681B680A435A633CE03B685B680C2BA5
:10161C001CD87B681B68196B3B685A6813469B0087
:10162C001344233B1F2202FA03F3DB4319403B68AC
:10163C0018683B685A6813469B001344233B00FA16
:10164C0003F27B681B680A431A631BE07B681B6808
:10165C00D96A3B685A6813469B001344413B1F22CE
:10166C0002FA03F3DB4319403B6818683B685A687D
:10167C0013469B001344413B00FA03F27B681B6842
:10168C000A43DA623B681B68092B1CD97B681B6810
:10169C00D9683B681A6813465B0013441E3B07224B
:1016AC0002FA03F3DB4319403B6898683B681A68FD
:1016BC0013465B0013441E3B00FA03F27B681B6865
:1016CC000A43DA6019E07B681B6819693B681A6881
:1016DC0013465B001344072202FA03F3DB43194061
:1016EC003B6898683B681A6813465B00134400FA21
:1016FC0003F27B681B680A431A613B681B68102B5A
:10170C0003D03B681B68112B32D17B681B681D4AC8
:10171C00934225D17B681B689B6803F40003002B64
:10172C0026D17B681B689A687B681B6842F40002B0
:10173C009A603B681B68102B1AD1134B1B68134A19
:10174C00A2FB03239A0C13469B0013445B00BB6063
:10175C0002E0BB68013BBB60BB68002BF9D107E022
:10176C007B689B6A43F020027B689A620123FB73BF
:10177C007B68002283F82420FB7B18461437BD4677
:10178C0080BC7047002401400000002083DE1B4316
:10179C0080B584B000AF78600023FB607B681B6869
:1017AC009B6803F00103012B2ED17B681B689A68A0
:1017BC007B681B6822F001029A60FFF7EBFDF86072
:1017CC001BE0FFF7E7FD0246FB68D31A022B14D986
:1017DC007B681B689B6803F00103012B0DD17B68B0
:1017EC009B6A43F010027B689A627B68DB6A43F069
:1017FC0001027B68DA62012307E07B681B689B6847
:10180C0003F00103012BDCD0002318461037BD4632
:10181C0080BD80B584B000AF78607B68002B01D1AF
:10182C000123EDE07B6893F82030DBB2002B02D172
:10183C007868FFF7A1FB7B681B681A687B681B68DC
:10184C0042F001021A60FFF7A5FDF86012E0FFF705
:10185C00A1FD0246FB68D31A0A2B0BD97B685B6A85
:10186C0043F400327B685A627B68052283F820209F
:10187C000123C5E07B681B685B6803F00103002B48
:10188C00E5D07B681B681A687B681B6822F0020233
:10189C001A60FFF77FFDF86012E0FFF77BFD024650
:1018AC00FB68D31A0A2B0BD97B685B6A43F40032B2
:1018BC007B685A627B68052283F8202001239FE015
:1018CC007B681B685B6803F00203002BE5D17B6827
:1018DC001B7E012B08D17B681B681A687B681B6810
:1018EC0042F080021A6007E07B681B681A687B680C
:1018FC001B6822F080021A607B685B7E012B08D18A
:10190C007B681B681A687B681B6842F040021A608F
:10191C0007E07B681B681A687B681B6822F0400232
:10192C001A607B689B7E012B08D17B681B681A6848
:10193C007B681B6842F020021A6007E07B681B681A
:10194C001A687B681B6822F020021A607B68DB7EB9
:10195C00012B08D17B681B681A687B681B6822F016
:10196C0010021A6007E07B681B681A687B681B68AA
:10197C0042F010021A607B681B7F012B08D17B6838
:10198C001B681A687B681B6842F008021A6007E043
:10199C007B681B681A687B681B6822F008021A6057
:1019AC007B685B7F012B08D17B681B681A687B689E
:1019BC001B6842F004021A6007E07B681B681A6817
:1019CC007B681B6822F004021A607B689A687B684B
:1019DC00DB681A437B681B691A437B685B6942EAC4
:1019EC0003017B685B685A1E7B681B680A43DA61DB
:1019FC007B6800225A627B68012283F82020002336
:101A0C0018461037BD4680BD80B487B000AF7860F3
:101A1C0039607B681B687B617B6893F82030FB74B2
:101A2C00FB7C012B03D0FB7C022B40F0AA807B6952
:101A3C00D3F8003243F001027B69C3F800223B6803
:101A4C005B6903F01F03012202FA03F3FB607B695D
:101A5C00D3F81C22FB68DB431A407B69C3F81C22B9
:101A6C003B68DB69002B23D17B69D3F80C22FB6824
:101A7C00DB431A407B69C3F80C223B68DB68190412
:101A8C003B685B689BB23A68526919437B69483280
:101A9C0043F832103B689B6819043B681B689AB288
:101AAC003B685B690A4379694833DB000B445A6035
:101ABC003B68DB69012B22D17B69D3F80C22FB68D4
:101ACC001A437B69C3F80C223B681B6819043B68FA
:101ADC005B689BB23A68526919437B69483243F898
:101AEC0032103B689B6819043B68DB689AB23B6810
:101AFC005B690A4379694833DB000B445A603B68E5
:101B0C009B69002B09D17B69D3F80422FB68DB436A
:101B1C001A407B69C3F8042207E07B69D3F80422DE
:101B2C00FB681A437B69C3F804223B681B69002BD2
:101B3C0009D17B69D3F81422FB68DB431A407B691B
:101B4C00C3F8142207E07B69D3F81422FB681A430C
:101B5C007B69C3F814223B681B6A012B07D17B6994
:101B6C00D3F81C22FB681A437B69C3F81C227B69DF
:101B7C00D3F8003223F001027B69C3F80022002362
:101B8C0006E07B685B6A43F480227B685A6201231F
:101B9C0018461C37BD4680BC704780B584B000AF7A
:101BAC0078607B6893F82030DBB2012B2ED17B68F8
:101BBC00022283F820207B681B681A687B681B68EC
:101BCC0022F001021A60FFF7E5FBF86012E0FFF764
:101BDC00E1FB0246FB68D31A0A2B0BD97B685B6AC4
:101BEC0043F400327B685A627B68052283F820201C
:101BFC00012312E07B681B685B6803F00103002B78
:101C0C00E5D17B6800225A62002306E07B685B6AA0
:101C1C0043F400227B685A62012318461037BD46F4
:101C2C0080BD80B487B000AFF860B9607A603B606B
:101C3C00FB6893F82030FB75FB7D012B03D0FB7DFB
:101C4C00022B40F0F380BB68002B0ED1FB681B68A5
:101C5C00DB6803F00303002B16D1FB685B6A43F4CB
:101C6C000012FB685A620123E7E0FB681B681B69E2
:101C7C0003F00303002B07D1FB685B6A43F40012EB
:101C8C00FB685A620123D8E0FB681A68BB681B33F7
:101C9C001B0113441B6803F004027B689A607B6889
:101CAC009B68002B0CD1FB681A68BB681B331B01AB
:101CBC0013441B685B0DC3F30A027B681A600BE0CC
:101CCC00FB681A68BB681B331B0113441B68DB08D9
:101CDC0023F060427B685A60FB681A68BB681B3350
:101CEC001B0113441B6803F002027B68DA60FB687B
:101CFC001A68BB681B331B01134404331B6803F0C5
:101D0C000F027B681A61FB681A68BB681B331B01E6
:101D1C00134404331B681B0ADAB27B689A61FB68B4
:101D2C001A68BB681B331B01134404331B681B0C60
:101D3C009AB27B685A61FB681A68BB681B01134432
:101D4C0003F5DC731B68DAB23B681A70FB681A681F
:101D5C00BB681B01134403F5DC731B681A0A3B6850
:101D6C000133D2B21A70FB681A68BB681B011344AA
:101D7C0003F5DC731B681A0C3B680233D2B21A7081
:101D8C00FB681A68BB681B01134403F5DC731B6802
:101D9C001A0E3B680333D2B21A70FB681A68BB6820
:101DAC001B01134403F5DE731A683B680433D2B28B
:101DBC001A70FB681A68BB681B01134403F5DE73C9
:101DCC001B681A0A3B680533D2B21A70FB681A6892
:101DDC00BB681B01134403F5DE731B681A0C3B68CC
:101DEC000633D2B21A70FB681A68BB681B01134425
:101DFC0003F5DE731B681A0E3B680733D2B21A70F8
:101E0C00BB68002B08D1FB681B68DA68FB681B6891
:101E1C0042F02002DA6007E0FB681B681A69FB6875
:101E2C001B6842F020021A61002306E0FB685B6A23
:101E3C0043F48022FB685A62012318461C37BD46C6
:101E4C0080BC704780B58AB000AF786000237B629D
:101E5C007B681B685B693B627B681B685B68FB612A
:101E6C007B681B689B68BB617B681B68DB687B615C
:101E7C007B681B681B693B617B681B689B69FB600B
:101E8C003B6A03F00103002B7CD0BB6903F0010318
:101E9C00002B23D07B681B6801229A60BB6903F07E
:101EAC000203002B03D0786800F083F916E0BB69BD
:101EBC0003F00403002B04D07B6A43F400637B62C1
:101ECC000CE0BB6903F00803002B04D07B6A43F4DD
:101EDC0080537B6202E0786800F086F9BB6903F4FA
:101EEC008073002B24D07B681B684FF480729A603F
:101EFC00BB6903F40073002B03D0786800F062F91F
:101F0C0016E0BB6903F48063002B04D07B6A43F4B6
:101F1C0000537B620CE0BB6903F40063002B04D01C
:101F2C007B6A43F480437B6202E0786800F065F9D9
:101F3C00BB6903F48033002B24D07B681B684FF4FF
:101F4C0080329A60BB6903F40033002B03D07868AD
:101F5C0000F041F916E0BB6903F48023002B04D098
:101F6C007B6A43F400437B620CE0BB6903F40023FF
:101F7C00002B04D07B6A43F480337B6202E07868E8
:101F8C0000F044F93B6A03F00803002B0CD07B698A
:101F9C0003F01003002B07D07B6A43F400737B62C1
:101FAC007B681B681022DA603B6A03F00403002B89
:101FBC000BD07B6903F00803002B06D07B681B68F1
:101FCC000822DA60786800F033F93B6A03F0020308
:101FDC00002B09D07B681B68DB6803F00303002B24
:101FEC0002D0786800F01BF93B6A03F04003002B29
:101FFC000CD03B6903F01003002B07D07B6A43F431
:10200C0080637B627B681B6810221A613B6A03F059
:10201C002003002B0BD03B6903F00803002B06D0E8
:10202C007B681B6808221A61786800F013F93B6A18
:10203C0003F01003002B09D07B681B681B6903F0AD
:10204C000303002B02D0786800F0FBF83B6A03F422
:10205C000033002B0BD0FB6903F01003002B06D0D0
:10206C007B681B6810225A60786800F0FCF83B6AA9
:10207C0003F48033002B0BD0FB6903F00803002B17
:10208C0006D07B681B6808225A60786800F0F4F868
:10209C003B6A03F40043002B7BD0FB6903F0040381
:1020AC00002B72D03B6A03F48073002B08D0FB68C2
:1020BC0003F00103002B03D07B6A43F001037B6226
:1020CC003B6A03F40073002B08D0FB6803F0020397
:1020DC00002B03D07B6A43F002037B623B6A03F460
:1020EC008063002B08D0FB6803F00403002B03D0A3
:1020FC007B6A43F004037B623B6A03F40063002BAE
:10210C0043D0FB6803F07003002B3ED0FB6803F058
:10211C007003602B2BD0602B2ED8502B22D0502B41
:10212C002AD8402B19D0402B26D8302B10D0302B4E
:10213C0022D8102B02D0202B05D01DE07B6A43F057
:10214C0008037B6219E07B6A43F010037B6214E0A6
:10215C007B6A43F020037B620FE07B6A43F0400311
:10216C007B620AE07B6A43F080037B6205E07B6A5A
:10217C0043F480737B6200E000BF7B681B689A6944
:10218C007B681B6822F070029A617B681B680422D2
:10219C005A607B6A002B08D07B685A6A7B6A1A43A8
:1021AC007B685A62786800F070F800BF2837BD462B
:1021BC0080BD80B483B000AF786000BF0C37BD46E3
:1021CC0080BC704780B483B000AF786000BF0C3720
:1021DC00BD4680BC704780B483B000AF786000BF50
:1021EC000C37BD4680BC704780B483B000AF7860BC
:1021FC0000BF0C37BD4680BC704780B483B000AFC5
:10220C00786000BF0C37BD4680BC704780B483B08B
:10221C0000AF786000BF0C37BD4680BC704780B4FF
:10222C0083B000AF786000BF0C37BD4680BC7047F0
:10223C0080B483B000AF786000BF0C37BD4680BC63
:10224C00704780B483B000AF786000BF0C37BD46D8
:10225C0080BC704780B483B000AF786000BF0C378F
:10226C00BD4680BC704780B483B000AF786000BFBF
:10227C000C37BD4680BC704780B483B000AF78602B
:10228C0000BF0C37BD4680BC704780B483B000AF34
:10229C00786000BF0C37BD4680BC704780B485B0F9
:1022AC0000AF78607B6803F00703FB600C4BDB68C6
:1022BC00BB60BA684FF6FF031340BB60FB681A02A1
:1022CC00BB68134343F0BF6343F40033BB60044A61
:1022DC00BB68D36000BF1437BD4680BC704700BFDD
:1022EC0000ED00E080B400AF044BDB681B0A03F088
:1022FC0007031846BD4680BC704700BF00ED00E0E8
:10230C0080B483B000AF0346FB7197F90730002B04
:10231C000BDBFB7903F01F02064997F907305B09C9
:10232C00012000FA02F241F8232000BF0C37BD4611
:10233C0080BC704700E100E080B483B000AF03467E
:10234C003960FB7197F90730002B0ADB3B68DAB276
:10235C000C4997F907301201D2B20B4483F80023D1
:10236C000AE03B68DAB20849FB7903F00F03043B3F
:10237C001201D2B20B441A7600BF0C37BD4680BC9A
:10238C00704700BF00E100E000ED00E080B489B0D0
:10239C0000AFF860B9607A60FB6803F00703FB617B
:1023AC00FB69C3F10703042B28BF0423BB61FB6942
:1023BC000433062B02D9FB69033B00E000237B614D
:1023CC004FF0FF32BB6902FA03F3DA43BB681A40E1
:1023DC007B699A404FF0FF317B6901FA03F3D943D3
:1023EC007B680B40134318462437BD4680BC7047AE
:1023FC0080B582B000AF78607B68013BB3F1807F21
:10240C0001D301230FE00A4A7B68013B53600F2183
:10241C004FF0FF30FFF790FF054B00229A60044B02
:10242C0007221A60002318460837BD4680BD00BF3E
:10243C0010E000E080B582B000AF78607868FFF7FC
:10244C002DFF00BF0837BD4680BD80B586B000AFFC
:10245C000346B9607A60FB7300237B61FFF742FF90
:10246C0078617A68B9687869FFF790FF024697F946
:10247C000F3011461846FFF75FFF00BF1837BD46F7
:10248C0080BD80B582B000AF0346FB7197F9073071
:10249C001846FFF735FF00BF0837BD4680BD80B535
:1024AC0082B000AF78607868FFF7A2FF0346184649
:1024BC000837BD4680BD000080B485B000AF7860A1
:1024CC000023FB607B68002B01D1012343E07B6878
:1024DC001B681A46224B1344224AA2FB03231B09F6
:1024EC009A007B681A647B681F4ADA637B68022255
:1024FC0083F821207B681B681B68FB60FB6823F456
:10250C007F5323F03003FB607B685A687B689B68C1
:10251C001A437B68DB681A437B681B691A437B6828
:10252C005B691A437B689B691A437B68DB691343BD
:10253C00FA681343FB607B681B68FA681A607B6857
:10254C0000229A637B68012283F821207B68002299
:10255C0083F82020002318461437BD4680BC7047F2
:10256C00F8FFFDBFCDCCCCCC0000024080B586B0CE
:10257C0000AFF860B9607A603B600023FB75FB68C4
:10258C0093F82030012B01D102234AE0FB68012291
:10259C0083F82020FB6893F82130012B3AD1FB689B
:1025AC00022283F82120FB6800229A63FB681B68D7
:1025BC001A68FB681B6822F001021A603B687A6893
:1025CC00B968F86800F0AEF9FB68DB6A002B08D03C
:1025DC00FB681B681A68FB681B6842F00E021A60E5
:1025EC000FE0FB681B681A68FB681B6822F004028A
:1025FC001A60FB681B681A68FB681B6842F00A02C9
:10260C001A60FB681B681A68FB681B6842F00102C1
:10261C001A6005E0FB68002283F820200223FB757A
:10262C00FB7D18461837BD4680BD000080B584B0D0
:10263C0000AF78600023FB737B6893F82130022B8A
:10264C0005D07B6804229A630123FB7351E07B68FD
:10265C001B681A687B681B6822F00E021A607B6884
:10266C001B681A687B681B6822F001021A607B6881
:10267C001B68224A934229D07B681B68204A9342EC
:10268C0022D07B681B681F4A93421AD07B681B6858
:10269C001D4A934212D07B681B681C4A93420AD095
:1026AC007B681B681A4A934202D14FF480130EE0E8
:1026BC004FF080730BE04FF4803308E04FF48053FD
:1026CC0005E04FF4807302E0102300E00123114A6F
:1026DC0053607B68012283F821207B68002283F8F9
:1026EC0020207B685B6B002B03D07B685B6B78686E
:1026FC009847FB7B18461037BD4680BD080002404A
:10270C001C000240300002404400024058000240CD
:10271C006C0002400000024080B584B000AF7860CD
:10272C007B68DB6B1B68FB607B681B681B68BB6092
:10273C007B681B6C04229A40FB681340002B4FD023
:10274C00BB6803F00403002B4AD07B681B681B6832
:10275C0003F02003002B07D17B681B681A687B6889
:10276C001B6822F004021A607B681B68664A93425D
:10277C0029D07B681B68654A934222D07B681B6812
:10278C00634A93421AD07B681B68624A934212D008
:10279C007B681B68604A93420AD07B681B685F4A5F
:1027AC00934202D14FF480030EE04FF080630BE0B4
:1027BC004FF4802308E04FF4804305E04FF480632E
:1027CC0002E0402300E00423554A53607B68DB6A37
:1027DC00002B00F094807B68DB6A786898478EE069
:1027EC007B681B6C02229A40FB681340002B56D06E
:1027FC00BB6803F00203002B51D07B681B681B687D
:10280C0003F02003002B0BD17B681B681A687B68D4
:10281C001B6822F00A021A607B68012283F82120CF
:10282C007B681B68384A934229D07B681B68374AFF
:10283C00934222D07B681B68354A93421AD07B683E
:10284C001B68344A934212D07B681B68324A93420D
:10285C000AD07B681B68314A934202D14FF40013B3
:10286C000EE04FF000730BE04FF4003308E04FF430
:10287C00005305E04FF4007302E0202300E0022334
:10288C00274A53607B68002283F820207B689B6A70
:10289C00002B34D07B689B6A786898472FE07B6864
:1028AC001B6C08229A40FB681340002B28D0BB6895
:1028BC0003F00803002B23D07B681B681A687B6825
:1028CC001B6822F00E021A607B681A6C7B68DB6B4B
:1028DC00012101FA02F25A607B6801229A637B683B
:1028EC00012283F821207B68002283F820207B685A
:1028FC001B6B002B04D07B681B6B7868984700BF60
:10290C0000BF1037BD4680BD080002401C000240CD
:10291C003000024044000240580002406C0002406B
:10292C000000024080B485B000AFF860B9607A60F6
:10293C003B60FB681A6CFB68DB6B012101FA02F24D
:10294C005A60FB681B683A685A60FB685B68102B1E
:10295C0008D1FB681B687A689A60FB681B68BA68C8
:10296C00DA6007E0FB681B68BA689A60FB681B6852
:10297C007A68DA6000BF1437BD4680BC704700002F
:10298C0080B48BB000AF7860396000237B62002389
:10299C003B6261E101227B6A02FA03F3FB613B6853
:1029AC001B68FA691340BB61BA69FB699A4240F033
:1029BC0050813B685B68974A93425ED0954A93423C
:1029CC0075D8954A934258D0934A93426FD8934AFC
:1029DC00934252D0914A934269D8914A93424CD037
:1029EC008F4A934263D88F4A934246D08D4A934282
:1029FC005DD8122B2AD8122B59D801A252F823F0E9
:102A0C00872A0008612A0008732A0008B52A0008E2
:102A1C00BB2A0008BB2A0008BB2A0008BB2A0008F6
:102A2C00BB2A0008BB2A0008BB2A0008BB2A0008E6
:102A3C00BB2A0008BB2A0008BB2A0008BB2A0008D6
:102A4C00BB2A0008692A00087D2A0008764A9342AE
:102A5C0013D02CE03B68DB683B6229E03B68DB6809
:102A6C0004333B6224E03B68DB6808333B621FE0C5
:102A7C003B68DB680C333B621AE03B689B68002BBD
:102A8C0002D104233B6213E03B689B68012B05D108
:102A9C0008233B627B68FA691A6109E008233B62F0
:102AAC007B68FA695A6103E000233B6200E000BFD7
:102ABC00BB69FF2B01D87B6801E07B6804337B6129
:102ACC00BB69FF2B02D87B6A9B0002E07B6A083B48
:102ADC009B003B617B691A680F213B6901FA03F388
:102AEC00DB431A40396A3B6901FA03F31A437B69E9
:102AFC001A603B685B6803F08053002B00F0A980E0
:102B0C004A4B9B69494A43F001039361474B9B69CC
:102B1C0003F00103BB60BB68454A7B6A9B08023328
:102B2C0052F82330FB607B6A03F003039B000F22F7
:102B3C0002FA03F3DB43FA681340FB607B683D4AFF
:102B4C0093420DD07B683C4A934207D07B683B4A4A
:102B5C00934201D1022304E0032302E0012300E0AD
:102B6C0000237A6A02F0030292009340FA6813433E
:102B7C00FB602F497B6A9B080233FA6841F82320DB
:102B8C003B685B6803F48033002B06D02C4B1A682F
:102B9C002B49BB6913430B6006E0294B1A68BB69D0
:102BAC00DB43274913400B603B685B6803F400333D
:102BBC00002B06D0224B5A682149BB6913434B604A
:102BCC0006E01F4B5A68BB69DB431D4913404B6041
:102BDC003B685B6803F48013002B06D0184B9A6893
:102BEC001749BB6913438B6006E0154B9A68BB69A8
:102BFC00DB43134913408B603B685B6803F40013A1
:102C0C00002B1FD00E4BDA680D49BB691343CB6008
:102C1C001FE000BF00003210000031100000221035
:102C2C0000002110000012100000111000100240D2
:102C3C000000014000080140000C01400010014060
:102C4C00000401400B4BDA68BB69DB4309491340B4
:102C5C00CB607B6A01337B623B681A687B6A22FA21
:102C6C0003F3002B7FF496AE00BF00BF2C37BD469C
:102C7C0080BC70470004014080B483B000AF786022
:102C8C000B467B8013467B707B78002B03D07A88B5
:102C9C007B681A6103E07B881A047B681A6100BFA9
:102CAC000C37BD4680BC704780B586B000AF7860ED
:102CBC007B68002B01D1012372E27B681B6803F057
:102CCC000103002B00F08780924B5B6803F00C0330
:102CDC00042B0CD08F4B5B6803F00C03082B12D128
:102CEC008C4B5B6803F48033B3F5803F0BD1894B7D
:102CFC001B6803F40033002B6CD07B685B68002BE3
:102D0C0068D101234CE27B685B68B3F5803F06D148
:102D1C00804B1B687F4A43F4803313602EE07B6842
:102D2C005B68002B0CD17B4B1B687A4A23F48033F5
:102D3C001360784B1B68774A23F4802313601DE0E3
:102D4C007B685B68B3F5A02F0CD1724B1B68714A82
:102D5C0043F4802313606F4B1B686E4A43F480333B
:102D6C0013600BE06B4B1B686A4A23F480331360CF
:102D7C00684B1B68674A23F4802313607B685B688D
:102D8C00002B13D0FEF706FB386108E0FEF702FBC0
:102D9C0002463B69D31A642B01D9032300E25D4B35
:102DAC001B6803F40033002BF0D014E0FEF7F2FAAA
:102DBC00386108E0FEF7EEFA02463B69D31A642B41
:102DCC0001D90323ECE1534B1B6803F40033002BB4
:102DDC00F0D100E000BF7B681B6803F00203002BFE
:102DEC0063D04C4B5B6803F00C03002B0BD0494BAE
:102DFC005B6803F00C03082B1CD1464B5B6803F497
:102E0C008033002B16D1434B1B6803F00203002BBD
:102E1C0005D07B681B69012B01D00123C0E13D4B20
:102E2C001B6823F0F8027B685B69DB0039491343AC
:102E3C000B603AE07B681B69002B20D0364B0122DB
:102E4C001A60FEF7A7FA386108E0FEF7A3FA02460B
:102E5C003B69D31A022B01D90323A1E12D4B1B682B
:102E6C0003F00203002BF0D02A4B1B6823F0F8026E
:102E7C007B685B69DB00274913430B6015E0264B2D
:102E8C0000221A60FEF786FA386108E0FEF782FA33
:102E9C0002463B69D31A022B01D9032380E11D4B57
:102EAC001B6803F00203002BF0D17B681B6803F056
:102EBC000803002B3AD07B689B69002B19D0174B69
:102ECC0001221A60FEF766FA386108E0FEF762FA32
:102EDC0002463B69D31A022B01D9032360E10D4B47
:102EEC005B6A03F00203002BF0D0012000F0A6FA7D
:102EFC001CE00A4B00221A60FEF74CFA38610FE016
:102F0C00FEF748FA02463B69D31A022B08D9032371
:102F1C0046E100BF001002400000424280044242E1
:102F2C00924B5B6A03F00203002BE9D17B681B68B0
:102F3C0003F00403002B00F0A6800023FB758B4BE1
:102F4C00DB6903F08053002B0DD1884BDB69874A7A
:102F5C0043F08053D361854BDB6903F08053BB6036
:102F6C00BB680123FB75824B1B6803F48073002B39
:102F7C0018D17F4B1B687E4A43F480731360FEF7B5
:102F8C0009FA386108E0FEF705FA02463B69D31AE4
:102F9C00642B01D9032303E1754B1B6803F4807385
:102FAC00002BF0D07B68DB68012B06D16F4B1B6AC2
:102FBC006E4A43F0010313622DE07B68DB68002B43
:102FCC000CD16A4B1B6A694A23F001031362674BED
:102FDC001B6A664A23F0040313621CE07B68DB68FF
:102FEC00052B0CD1614B1B6A604A43F0040313623E
:102FFC005E4B1B6A5D4A43F0010313620BE05B4BB3
:10300C001B6A5A4A23F001031362584B1B6A574A36
:10301C0023F0040313627B68DB68002B15D0FEF7EA
:10302C00B9F938610AE0FEF7B5F902463B69D31AE3
:10303C0041F28832934201D90323B1E04B4B1B6A16
:10304C0003F00203002BEED014E0FEF7A3F9386175
:10305C000AE0FEF79FF902463B69D31A41F2883227
:10306C00934201D903239BE0404B1B6A03F00203FC
:10307C00002BEED1FB7D012B05D13C4BDB693B4A90
:10308C0023F08053D3617B68DB69002B00F08780D1
:10309C00364B5B6803F00C03082B61D07B68DB6953
:1030AC00022B46D1334B00221A60FEF773F93861BC
:1030BC0008E0FEF76FF902463B69D31A022B01D9DF
:1030CC0003236DE0294B1B6803F00073002BF0D138
:1030DC007B681B6AB3F5803F08D1244B5B6823F4F3
:1030EC0000327B689B68214913434B601F4B5B6824
:1030FC0023F474127B68196A7B685B6A0B431B4967
:10310C0013434B601B4B01221A60FEF743F93861E5
:10311C0008E0FEF73FF902463B69D31A022B01D9AE
:10312C0003233DE0114B1B6803F00073002BF0D020
:10313C0035E0104B00221A60FEF72CF9386108E0DC
:10314C00FEF728F902463B69D31A022B01D9032357
:10315C0026E0064B1B6803F00073002BF0D11EE039
:10316C007B68DB69012B07D1012319E000100240B9
:10317C0000700040600042420B4B5B68FB60FB68D8
:10318C0003F480327B681B6A9A4206D1FB6803F415
:10319C0070127B685B6A9A4201D0012300E0002325
:1031AC0018461837BD4680BD0010024080B584B06B
:1031BC0000AF786039607B68002B01D10123D0E02F
:1031CC006A4B1B6803F007033A689A4210D9674BA5
:1031DC001B6823F0070265493B6813430B60634B84
:1031EC001B6803F007033A689A4201D00123B8E048
:1031FC007B681B6803F00203002B20D07B681B68E4
:10320C0003F00403002B05D0594B5B68584A43F478
:10321C00E06353607B681B6803F00803002B05D048
:10322C00534B5B68524A43F460535360504B5B689A
:10323C0023F0F0027B689B684D4913434B607B681D
:10324C001B6803F00103002B40D07B685B68012BEB
:10325C0007D1474B1B6803F40033002B15D1012316
:10326C007FE07B685B68022B07D1414B1B6803F046
:10327C000073002B09D1012373E03D4B1B6803F055
:10328C000203002B01D101236BE0394B5B6823F067
:10329C0003027B685B68364913434B60FEF77AF890
:1032AC00F8600AE0FEF776F80246FB68D31A41F2A2
:1032BC008832934201D9032353E02D4B5B6803F012
:1032CC000C027B685B689B009A42EBD1274B1B6816
:1032DC0003F007033A689A4210D2244B1B6823F080
:1032EC00070222493B6813430B60204B1B6803F019
:1032FC0007033A689A4201D0012332E07B681B68CD
:10330C0003F00403002B08D0194B5B6823F4E06234
:10331C007B68DB68164913434B607B681B6803F0C2
:10332C000803002B09D0124B5B6823F460527B68B6
:10333C001B69DB000E4913434B6000F021F8024679
:10334C000B4B5B681B0903F00F030A49CB5C22FA99
:10335C0003F3094A1360094B1B681846FDF7D8FFA5
:10336C00002318461037BD4680BD00BF0020024028
:10337C0000100240B84700080000002004000020A4
:10338C0090B48AB000AF294B3C1D0FCB84E80F00E2
:10339C0040F201233B800023FB610023BB6100232F
:1033AC007B6200237B6100233B62214B5B68FB61EA
:1033BC00FB6903F00C03042B02D0082B03D02BE089
:1033CC001C4B3B622BE0FB699B0C03F00F03283377
:1033DC003B4413F8243C7B61FB6903F48033002BE2
:1033EC0012D0134B5B685B0C03F0010328333B4496
:1033FC0013F8283CBB617B690E4A03FB02F2BB69E4
:10340C00B2FBF3F37B6204E07B690B4A02FB03F330
:10341C007B627B6A3B6202E0064B3B6200BF3B6A0D
:10342C0018462837BD4690BC704700BFA847000817
:10343C000010024000127A0000093D0080B485B0F3
:10344C0000AF78600A4B1B680A4AA2FB03235B0A95
:10345C007A6802FB03F3FB6000BFFB685A1EFA603C
:10346C00002BF9D100BF00BF1437BD4680BC70479C
:10347C0000000020D34D621080B586B000AF78609C
:10348C0000233B610023FB607B681B6803F0010396
:10349C00002B7DD00023FB754F4BDB6903F0805371
:1034AC00002B0DD14C4BDB694B4A43F08053D3615D
:1034BC00494BDB6903F08053BB60BB680123FB7590
:1034CC00464B1B6803F48073002B18D1434B1B68CD
:1034DC00424A43F480731360FDF75CFF386108E0E7
:1034EC00FDF758FF02463B69D31A642B01D903231D
:1034FC006DE03A4B1B6803F48073002BF0D0364B15
:10350C001B6A03F44073FB60FB68002B2ED07B68B6
:10351C005B6803F44073FA689A4227D02E4B1B6AFF
:10352C0023F44073FB602E4B01221A602C4B0022BB
:10353C001A60294AFB681362FB6803F00103002B35
:10354C0014D0FDF727FF38610AE0FDF723FF024690
:10355C003B69D31A41F28832934201D9032336E0F6
:10356C001D4B1B6A03F00203002BEED01A4B1B6A97
:10357C0023F440727B685B68174913430B62FB7D35
:10358C00012B05D1144BDB69134A23F08053D36113
:10359C007B681B6803F00203002B08D00E4B5B68A2
:1035AC0023F440427B689B680B4913434B607B6858
:1035BC001B6803F01003002B08D0074B5B6823F447
:1035CC0080027B68DB68044913434B600023184678
:1035DC001837BD4680BD00BF00100240007000408F
:1035EC004004424280B582B000AF78607B68002B0B
:1035FC0001D1012341E07B6893F83D30DBB2002B15
:10360C0006D17B68002283F83C207868FDF708FD22
:10361C007B68022283F83D207B681A687B68043340
:10362C001946104600F03EFD7B68012283F84620C7
:10363C007B68012283F83E207B68012283F83F20BF
:10364C007B68012283F840207B68012283F84120AB
:10365C007B68012283F842207B68012283F8432097
:10366C007B68012283F844207B68012283F8452083
:10367C007B68012283F83D20002318460837BD469D
:10368C0080BD80B582B000AF78607B68002B01D123
:10369C00012341E07B6893F83D30DBB2002B06D16F
:1036AC007B68002283F83C20786800F039F87B684E
:1036BC00022283F83D207B681A687B680433194624
:1036CC00104600F0EFFC7B68012283F846207B68F3
:1036DC00012283F83E207B68012283F83F207B681F
:1036EC00012283F840207B68012283F841207B680B
:1036FC00012283F842207B68012283F843207B68F7
:10370C00012283F844207B68012283F845207B68E2
:10371C00012283F83D20002318460837BD4680BDA2
:10372C0080B483B000AF786000BF0C37BD4680BC5E
:10373C007047000080B586B000AFF860B9607A6061
:10374C007B80BB68002B09D1FB6893F83E30DBB261
:10375C00022B0CBF01230023DBB222E0BB68042B3D
:10376C0009D1FB6893F83F30DBB2022B0CBF01236D
:10377C000023DBB215E0BB68082B09D1FB6893F87A
:10378C004030DBB2022B0CBF01230023DBB208E07C
:10379C00FB6893F84130DBB2022B0CBF01230023F2
:1037AC00DBB2002B01D0022349E1BB68002B09D10D
:1037BC00FB6893F83E30DBB2012B0CBF01230023D6
:1037CC00DBB222E0BB68042B09D1FB6893F83F30D5
:1037DC00DBB2012B0CBF01230023DBB215E0BB686D
:1037EC00082B09D1FB6893F84030DBB2012B0CBFDE
:1037FC0001230023DBB208E0FB6893F84130DBB215
:10380C00012B0CBF01230023DBB2002B24D07B68DF
:10381C00002B04D17B88002B01D001230FE1BB6866
:10382C00002B04D1FB68022283F83E2016E0BB6813
:10383C00042B04D1FB68022283F83F200EE0BB6806
:10384C00082B04D1FB68022283F8402006E0FB68B9
:10385C00022283F8412001E00123F0E0BB680C2B2D
:10386C0000F2AE8001A252F823F000BFAD38000880
:10387C00CD390008CD390008CD390008F5380008DD
:10388C00CD390008CD390008CD3900083D39000884
:10389C00CD390008CD390008CD390008853900082C
:1038AC00FB685B6A684A9A62FB685B6A674ADA6221
:1038BC00FB685B6A664A1A63FB68586A7968FB683E
:1038CC001B6834331A467B88FEF750FE0346002BE8
:1038DC0001D00123B3E0FB681B68DA68FB681B6846
:1038EC0042F40072DA606CE0FB689B6A564A9A629A
:1038FC00FB689B6A554ADA62FB689B6A544A1A63F6
:10390C00FB68986A7968FB681B6838331A467B88B1
:10391C00FEF72CFE0346002B01D001238FE0FB6841
:10392C001B68DA68FB681B6842F48062DA6048E066
:10393C00FB68DB6A444A9A62FB68DB6A434ADA62D8
:10394C00FB68DB6A424A1A63FB68D86A7968FB68D1
:10395C001B683C331A467B88FEF708FE0346002B97
:10396C0001D001236BE0FB681B68DA68FB681B68FD
:10397C0042F40062DA6024E0FB681B6B324A9A6204
:10398C00FB681B6B314ADA62FB681B6B304A1A63AB
:10399C00FB68186B7968FB681B6840331A467B8898
:1039AC00FEF7E4FD0346002B01D0012347E0FB6842
:1039BC001B68DA68FB681B6842F48052DA6000E02E
:1039CC0000BFFB681B680122B968184600F0E0FDD7
:1039DC00FB681B681F4A934207D1FB681B685A6C33
:1039EC00FB681B6842F400425A64FB681B68194A66
:1039FC00934209D0FB681B68B3F1804F04D0FB687D
:103A0C001B68154A934211D1FB681B689B6803F035
:103A1C0007037B617B69062B10D0FB681B681A6857
:103A2C00FB681B6842F001021A6007E0FB681B6828
:103A3C001A68FB681B6842F001021A6000231846E2
:103A4C001837BD4680BD00BF9F3F000847400008A7
:103A5C000D3F0008002C01400004004080B582B0EE
:103A6C0000AF786039603B680C2B55D801A252F836
:103A7C0023F000BFB53A0008253B0008253B0008A1
:103A8C00253B0008D13A0008253B0008253B0008DF
:103A9C00253B0008ED3A0008253B0008253B0008B3
:103AAC00253B0008093B00087B681B68DA687B68CB
:103ABC001B6822F40072DA607B685B6A1846FEF7BA
:103ACC00B5FD2AE07B681B68DA687B681B6822F40A
:103ADC008062DA607B689B6A1846FEF7A7FD1CE0E3
:103AEC007B681B68DA687B681B6822F40062DA600A
:103AFC007B68DB6A1846FEF799FD0EE07B681B6855
:103B0C00DA687B681B6822F48052DA607B681B6B76
:103B1C001846FEF78BFD00E000BF7B681B68002297
:103B2C003968184600F034FD7B681B68294A9342BB
:103B3C0017D17B681B681A6A41F211131340002BD2
:103B4C000FD17B681B681A6A40F244431340002B68
:103B5C0007D17B681B685A6C7B681B6822F4004297
:103B6C005A647B681B681A6A41F211131340002BCC
:103B7C000FD17B681B681A6A40F244431340002B38
:103B8C0007D17B681B681A687B681B6822F00102EE
:103B9C001A603B68002B04D17B68012283F83E201D
:103BAC0013E03B68042B04D17B68012283F83F208F
:103BBC000BE03B68082B04D17B68012283F8402082
:103BCC0003E07B68012283F8412000231846083764
:103BDC00BD4680BD002C014080B584B000AFF860BC
:103BEC00B9607A60FB6893F83C30012B01D1022359
:103BFC00ACE0FB68012283F83C207B680C2B00F2C4
:103C0C009F8001A252F823F0493C00084D3D00086A
:103C1C004D3D00084D3D0008893C00084D3D000815
:103C2C004D3D00084D3D0008CB3C00084D3D0008C3
:103C3C004D3D00084D3D00080B3D0008FB681B681E
:103C4C00B968184600F086FAFB681B689A69FB682D
:103C5C001B6842F008029A61FB681B689A69FB6852
:103C6C001B6822F004029A61FB681B689969BB68A7
:103C7C001A69FB681B680A439A6162E0FB681B685F
:103C8C00B968184600F0CCFAFB681B689A69FB68A7
:103C9C001B6842F400629A61FB681B689A69FB68B6
:103CAC001B6822F480629A61FB681B689969BB6887
:103CBC001B691A02FB681B680A439A6141E0FB68A6
:103CCC001B68B968184600F015FBFB681B68DA69BD
:103CDC00FB681B6842F00802DA61FB681B68DA6952
:103CEC00FB681B6822F00402DA61FB681B68D96967
:103CFC00BB681A69FB681B680A43DA6121E0FB6840
:103D0C001B68B968184600F05FFBFB681B68DA6932
:103D1C00FB681B6842F40062DA61FB681B68DA69B5
:103D2C00FB681B6822F48062DA61FB681B68D96946
:103D3C00BB681B691A02FB681B680A43DA6100E066
:103D4C0000BFFB68002283F83C2000231846103784
:103D5C00BD4680BD80B584B000AF786039607B68AB
:103D6C0093F83C30012B01D10223B3E07B68012294
:103D7C0083F83C207B68022283F83D207B681B681B
:103D8C009B68FB60FB6823F07703FB60FB6823F404
:103D9C007F43FB607B681B68FA689A603B681B6812
:103DAC00B3F5005F3ED0B3F5005F00F28780B3F54A
:103DBC00805F00F08580B3F5805F7FD8702B1AD0C0
:103DCC00702B7BD8602B50D0602B77D8502B3CD0ED
:103DDC00502B73D8402B58D0402B6FD8302B64D03D
:103DEC00302B6BD8202B60D0202B67D8002B5CD0CD
:103DFC00102B5AD062E07B6818683B6899683B6866
:103E0C005A683B68DB6800F0A4FB7B681B689B6806
:103E1C00FB60FB6843F07703FB607B681B68FA6808
:103E2C009A604EE07B6818683B6899683B685A68F2
:103E3C003B68DB6800F08DFB7B681B689A687B68CD
:103E4C001B6842F480429A603BE07B6818683B68D0
:103E5C0059683B68DB681A4600F004FB7B681B68FA
:103E6C005021184600F05BFB2BE07B6818683B6820
:103E7C0059683B68DB681A4600F022FB7B681B68BC
:103E8C006021184600F04BFB1BE07B6818683B6810
:103E9C0059683B68DB681A4600F0E4FA7B681B68DB
:103EAC004021184600F03BFB0BE07B681A683B682E
:103EBC001B681946104600F032FB02E000BF00E020
:103ECC0000BF7B68012283F83D207B68002283F8C9
:103EDC003C20002318461037BD4680BD80B483B00B
:103EEC0000AF786000BF0C37BD4680BC704780B413
:103EFC0083B000AF786000BF0C37BD4680BC704704
:103F0C0080B584B000AF78607B685B6AFB60FB684F
:103F1C005B6A7A689A4207D1FB6801221A77FB68C0
:103F2C00012283F83E202AE0FB689B6A7A689A4259
:103F3C0007D1FB6802221A77FB68012283F83F2025
:103F4C001DE0FB68DB6A7A689A4207D1FB680422A1
:103F5C001A77FB68012283F8402010E0FB681B6B8A
:103F6C007A689A4207D1FB6808221A77FB6801220B
:103F7C0083F8412003E0FB68012283F83D20F868B8
:103F8C00FFF7B5FFFB6800221A7700BF1037BD465C
:103F9C0080BD80B584B000AF78607B685B6AFB60E5
:103FAC00FB685B6A7A689A420BD1FB6801221A772C
:103FBC007B689B69002B36D1FB68012283F83E207D
:103FCC0031E0FB689B6A7A689A420BD1FB6802224B
:103FDC001A777B689B69002B25D1FB68012283F83B
:103FEC003F2020E0FB68DB6A7A689A420BD1FB68C1
:103FFC0004221A777B689B69002B14D1FB68012281
:10400C0083F840200FE0FB681B6B7A689A420AD158
:10401C00FB6808221A777B689B69002B03D1FB682D
:10402C00012283F84120F868FCF78AF8FB6800222B
:10403C001A7700BF1037BD4680BD80B584B000AF85
:10404C0078607B685B6AFB60FB685B6A7A689A42A3
:10405C0003D1FB6801221A7719E0FB689B6A7A6826
:10406C009A4203D1FB6802221A7710E0FB68DB6AE4
:10407C007A689A4203D1FB6804221A7707E0FB683E
:10408C001B6B7A689A4202D1FB6808221A77F8688F
:10409C00FFF724FFFB6800221A7700BF1037BD46DC
:1040AC0080BD000080B485B000AF786039607B685B
:1040BC001B68FB607B68254A934207D07B68B3F191
:1040CC00804F03D07B68224A934208D1FB6823F0CF
:1040DC007003FB603B685B68FA681343FB607B68AA
:1040EC001A4A934207D07B68B3F1804F03D07B68A8
:1040FC00174A934208D1FB6823F44073FB603B687A
:10410C00DB68FA681343FB60FB6823F080023B68B2
:10411C005B691343FB607B68FA681A603B689A68BA
:10412C007B68DA623B681A687B689A627B68074A2C
:10413C00934203D13B681A697B681A637B6801223E
:10414C005A6100BF1437BD4680BC7047002C01403B
:10415C000004004080B487B000AF786039607B68A1
:10416C001B6A23F001027B681A627B681B6A7B6105
:10417C007B685B683B617B689B69FB60FB6823F039
:10418C007003FB60FB6823F00303FB603B681B6858
:10419C00FA681343FB607B6923F002037B613B6885
:1041AC009B687A6913437B617B681C4A93420CD1F0
:1041BC007B6923F008037B613B68DB687A691343F6
:1041CC007B617B6923F004037B617B68134A934218
:1041DC0011D13B6923F480733B613B6923F4007379
:1041EC003B613B685B693A6913433B613B689B6984
:1041FC003A6913433B617B683A695A607B68FA6899
:10420C009A613B685A687B685A637B687A691A6260
:10421C0000BF1C37BD4680BC704700BF002C01405E
:10422C0080B487B000AF786039607B681B6A23F07C
:10423C0010027B681A627B681B6A7B617B685B6817
:10424C003B617B689B69FB60FB6823F4E043FB608C
:10425C00FB6823F44073FB603B681B681B02FA6825
:10426C001343FB607B6923F020037B613B689B68F5
:10427C001B017A6913437B617B681D4A93420DD104
:10428C007B6923F080037B613B68DB681B017A69E7
:10429C0013437B617B6923F040037B617B68144A89
:1042AC00934213D13B6923F480633B613B6923F454
:1042BC0000633B613B685B699B003A6913433B615C
:1042CC003B689B699B003A6913433B617B683A6985
:1042DC005A607B68FA689A613B685A687B689A6393
:1042EC007B687A691A6200BF1C37BD4680BC704778
:1042FC00002C014080B487B000AF786039607B68D7
:10430C001B6A23F480727B681A627B681B6A7B6170
:10431C007B685B683B617B68DB69FB60FB6823F057
:10432C007003FB60FB6823F00303FB603B681B68B6
:10433C00FA681343FB607B6923F400737B613B6871
:10434C009B681B027A6913437B617B681D4A93420D
:10435C000DD17B6923F400637B613B68DB681B0236
:10436C007A6913437B617B6923F480637B617B688F
:10437C00144A934213D13B6923F480533B613B694C
:10438C0023F400533B613B685B691B013A6913439F
:10439C003B613B689B691B013A6913433B617B683A
:1043AC003A695A607B68FA68DA613B685A687B68DC
:1043BC00DA637B687A691A6200BF1C37BD4680BC21
:1043CC00704700BF002C014080B487B000AF78600C
:1043DC0039607B681B6A23F480527B681A627B68A5
:1043EC001B6A3B617B685B687B617B68DB69FB609C
:1043FC00FB6823F4E043FB60FB6823F44073FB6031
:10440C003B681B681B02FA681343FB603B6923F48F
:10441C0000533B613B689B681B033A6913433B6148
:10442C007B680F4A934209D17B6923F480437B61FB
:10443C003B685B699B017A6913437B617B687A6992
:10444C005A607B68FA68DA613B685A687B681A6460
:10445C007B683A691A6200BF1C37BD4680BC704746
:10446C00002C014080B487B000AFF860B9607A606E
:10447C00FB681B6A7B61FB681B6A23F00102FB680B
:10448C001A62FB689B693B613B6923F0F0033B615B
:10449C007B681B013A6913433B617B6923F00A0378
:1044AC007B617A69BB6813437B61FB683A699A61EB
:1044BC00FB687A691A6200BF1C37BD4680BC704726
:1044CC0080B487B000AFF860B9607A60FB681B6A93
:1044DC0023F01002FB681A62FB689B697B61FB6826
:1044EC001B6A3B617B6923F470437B617B681B0314
:1044FC007A6913437B613B6923F0A0033B61BB6882
:10450C001B013A6913433B61FB687A699A61FB684A
:10451C003A691A6200BF1C37BD4680BC704780B434
:10452C0085B000AF786039607B689B68FB60FB6886
:10453C0023F07003FB603A68FB68134343F00703F6
:10454C00FB607B68FA689A6000BF1437BD4680BC7C
:10455C00704780B487B000AFF860B9607A603B6098
:10456C00FB689B687B617B6923F47F437B613B68C1
:10457C001A027B681A43BB6813437A6913437B6145
:10458C00FB687A699A6000BF1C37BD4680BC7047D7
:10459C0080B487B000AFF860B9607A60BB6803F094
:1045AC001F03012202FA03F37B61FB681A6A7B6921
:1045BC00DB431A40FB681A62FB681A6ABB6803F09B
:1045CC001F03796801FA03F31A43FB681A6200BFF0
:1045DC001C37BD4680BC704780B485B000AF786096
:1045EC0039607B6893F83C30012B01D1022341E008
:1045FC007B68012283F83C207B68022283F83D20F3
:10460C007B681B685B68FB607B681B689B68BB6096
:10461C00FB6823F07003FB603B681B68FA6813436C
:10462C00FB607B681B68FA685A607B681B68144ADD
:10463C00934209D07B681B68B3F1804F04D07B6830
:10464C001B68104A93420CD1BB6823F08003BB60FB
:10465C003B685B68BA681343BB607B681B68BA68CD
:10466C009A607B68012283F83D207B68002283F8E6
:10467C003C20002318461437BD4680BC704700BF51
:10468C00002C01400004004080B485B000AF78607D
:10469C0039600023FB607B6893F83C30012B01D11F
:1046AC0002233DE07B68012283F83C20FB6823F069
:1046BC00FF023B68DB681343FB60FB6823F440722A
:1046CC003B689B681343FB60FB6823F480623B6888
:1046DC005B681343FB60FB6823F400623B681B6858
:1046EC001343FB60FB6823F480523B681B69134344
:1046FC00FB60FB6823F400523B685B691343FB606F
:10470C00FB6823F480423B68DB691343FB607B68E6
:10471C001B68FA685A647B68002283F83C200023EB
:10472C0018461437BD4680BC7047000070B5002693
:10473C000C4D0D4C641BA410A64209D100F022F8BC
:10474C0000260A4D0A4C641BA410A64205D170BD6C
:10475C0055F8043B98470136EEE755F8043B98476B
:10476C000136F2E7C8470008C8470008C8470008E8
:10477C00CC47000803460244934200D1704703F82B
:10478C00011BF9E7F8B500BFF8BC08BC9E467047A2
:0C479C00F8B500BFF8BC08BC9E46704792
:1047A80002030405060708090A0B0C0D0E0F10106A
:1047B80000000000000000000102030406070809C9
:0447C80031010008B3
:0447CC000D010008D3
:0C47D0000024F4001000000001000000B4
:04000005080012A538
:00000001FF
